:020000040800F2
:10000000000002201D0F00081B0F0008190F000838
:10001000190F0008190F0008190F00080000000050
:100020000000000000000000000000001B0F00089E
:100030001B0F0008000000001B0F00081B0F00082A
:10004000190F0008190F0008190F0008190F0008F0
:10005000190F0008190F0008190F0008190F0008E0
:10006000190F0008190F0008190F0008190F0008D0
:10007000190F0008190F0008190F0008190F0008C0
:10008000190F0008190F0008190F0008190F0008B0
:10009000190F0008190F0008190F0008190F0008A0
:1000A000190F0008190F0008190F0008190F000890
:1000B000190F0008190F0008190F0008190F000880
:1000C000190F0008190F0008190F0008190F000870
:1000D000190F0008190F0008190F0008190F000860
:1000E000190F0008190F0008190F0008190F000850
:1000F000190F0008190F0008190F0008190F000840
:10010000190F0008190F0008190F0008190F00082F
:10011000190F0008190F0008190F0008190F00081F
:10012000190F0008190F0008190F0008190F00080F
:10013000190F0008190F0008190F0008190F0008FF
:10014000190F0008190F0008190F0008190F0008EF
:10015000190F0008190F0008190F0008190F0008DF
:10016000190F0008190F0008190F0008190F0008CF
:10017000190F0008190F0008190F0008190F0008BF
:10018000190F0008190F0008190F0008190F0008AF
:10019000190F0008190F0008190F0008190F00089F
:1001A000190F0008190F0008190F000848782028B7
:1001B00004D0A0F1220358425841704718880628FD
:1001C00094BF00200120704737B5104B00930446C0
:1001D000002540230222012100F02AFA2046009542
:1001E00040230222822100F023FA204600951023AA
:1001F0000322832100F01CFA054B7F222121204697
:1002000003B0BDE8304000F08BBD00BF1502000810
:10021000AD01000830B591B040236A460121054682
:1002200000F030FA044638B123466A468221284657
:1002300000F020FA0028F7D011B030BD1FB51648E5
:1002400000F012F940F2016000F0B4F940F21D60D4
:1002500000F0B0F94FF46043002202210F4800F093
:1002600057F94FF460420C210C4800F06EF98023DE
:1002700002930B4B0193032300930A490A4B0B4A49
:100280000B4800F0A5F90B49044600F02CFC204671
:1002900000F0CAF9FBE700BF6C1700080004024039
:1002A000180000205C160008000000208C160008D2
:1002B000FC170008C9010008062822D8DFE800F072
:1002C00004171C090E1015000F4B1868C0F340608E
:1002D00070470D4B1868C0F3404070470A4B00E070
:1002E0000A4B1868C0F340007047094BF9E7064B0A
:1002F0001868C0F340707047034B1868C0F3C060C3
:1003000070470020704700BF00380240703802403C
:100310007438024010B504462046FFF7CDFF002890
:10032000FAD010BD062822D8DFE800F004171C0917
:100330000E1012000E4A136843F0807316E00C4A48
:10034000136843F4803311E0094A02E0094A00E0EF
:10035000094A136843F0010308E0054A136843F0B3
:10036000805303E0024A136843F0806313607047D0
:10037000003802407038024074380240062822D803
:10038000DFE800F004171C090E1012000E4A136873
:1003900023F0807316E00C4A136823F4803311E0D5
:1003A000094A02E0094A00E0094A136823F0010300
:1003B00008E0054A136823F0805303E0024A1368FB
:1003C00023F08063136070470038024070380240A9
:1003D00074380240034A136823F003031843106083
:1003E000704700BF08380240034A136823F4604393
:1003F00043EA40301060704708380240034A1368EF
:1004000023F4E05343EA802010607047083802402C
:10041000034A136823F0F00343EA001010607047AA
:100420000838024010B503F00F03029C1B0643F48A
:10043000800300F03F005208012C40EA0300C1F3A2
:10044000080102F1FF3298BF022440EA811002F055
:10045000030240EA024004F00704024B40EA047041
:10046000186010BD0438024037B504460420FFF779
:1004700059FF0420FFF74EFF0020FFF7ABFF0320DA
:10048000FFF750FF0320FFF745FFE07B00B101209D
:1004900000F090FD207BFFF7BBFF607BFFF7AEFF16
:1004A000A07BFFF7A1FFA579618820782279637985
:1004B0000095FFF7B7FF114A136843F0807313608C
:1004C0000020FFF727FFA06800F06AF80220FFF77E
:1004D00081FF0B4B1B68C3F38103022BF9D1094B3E
:1004E00022691A60084B62691A60A269074B0420EE
:1004F0001A6003B0BDE83040FFF740BF003802404B
:10050000083802400C0000201000002014000020D9
:10051000F0B50668C568002743FA07F4E4070ED56E
:100520004FEA470E032404FA0EF4E443264001FA8E
:100530000EFC2C4002FA0EF546EA0C062543013764
:10054000102FE9D10660C560F0BDF0B5046A436ABA
:10055000002542FA05F6F70741BF0F26AF00BE405F
:10056000B44305F1010544BF01FA07F63443082DF1
:10057000EFD1002505F1080642FA06F6F60741BF5D
:100580000F26AF00BE40B34305F1010544BF01FA99
:1005900007F63343082DEDD104624362F0BD00003D
:1005A000034A136823F0070318431060704700BF25
:1005B000003C0240430903F1804303F50E3300F091
:1005C0001F001968012282400A431A607047000028
:1005D0002DE9F0411E4603680546884617469847B0
:1005E000069BC360079B0361BDF8203083820B4BE1
:1005F00003670B4BC3660B4B83660023C0F8DC50CC
:10060000C0F8008047608660C0F8C830C0F8CC30C1
:10061000C0F8D030C0F8D430BDE8F081470D0008F4
:10062000A10D0008270E0008D0F8DC305B6A1847DF
:1006300010B5D0F8DC40A468A446BDE8104060477F
:1006400037B50368002504468575C575DB790095C7
:1006500029462A46FFF7ECFFD4F8DC3020465B68D9
:1006600029469847E3691BB103B0BDE830401847FD
:1006700003B030BD10B5D0F8DC40E469A446BDE855
:100680001040604710B5D0F8DC40246AA446BDE8AD
:1006900010406047D0F8DC301B691847D0F8DC30D8
:1006A0009B691847F8B50D464988044679B1036837
:1006B000587C0023834208D266680D2202FB036245
:1006C00052798A4205D00133F4E70020F8BD4FF09B
:1006D000FF330133DBB2E37543B9D4F8DC30204695
:1006E000DB689847D4F8C830A3B924E00D226FF036
:1006F0000C0112FB031362681344002219798A4229
:10070000EBD2D3F809101001415809B1002008704C
:100710000132F3E70023A3642365A365236604F194
:10072000C40604F1D40756F8043F13B12046698883
:100730009847BE42F7D10120F8BD198812680129F7
:1007400084BF01211980C37D2BB141680D2000FBBE
:10075000031313F8083C13700120704770B5C67D71
:1007600040680D256FF00C0415FB064420448D886D
:100770000479A5420CD201241C808B88D0F8090092
:1007800012681B011B5803B11B781370012070BD48
:10079000002070BD1988022984BF022119801168C8
:1007A00000230B70126801205370704719880229CA
:1007B00084BF02211980116800230B701268012088
:1007C0005370704738B514461A882568022A84BFCA
:1007D00002221A808988C9B2FFF760FF003018BF73
:1007E00001202870236800225A70012038BD08B506
:1007F00089880122C9B2FFF74DFF012008BD08B565
:1008000089880022C9B2FFF745FF012008BD10B555
:100810000B786BB94C887F2C0AD8D0F8DC30847503
:1008200093F8302032B149885B68C9B2984701E03B
:10083000002010BD012010BD70B5C27D0C461D46C4
:100840000D216FF00C0311FB02324368A1881A449A
:1008500013798B4216D9D2F809300A019E186188A3
:1008600036798E420ED99A580AB1117000E049B912
:10087000D0F8D83013B1A1886288984700232B8024
:10088000012070BD002070BD2DE9F04F054648885D
:10089000C6B2000A022889B090461F460FD003282E
:1008A00000F0E180012840F01A812B6813602B686A
:1008B0003A881B78934228BF13463B8010E12B698E
:1008C000136001930D23D5F804803C8801985E43A2
:1008D00008EB060318F806500293A54228BF2546E8
:1008E00019462A4600F0A0FD019B18F80660641B1B
:1008F0002B44A4B200220492029A1179BDF8102070
:10090000914240F2AC8012010692029A0699D2F806
:1009100009200A44D2F80890B9F1000F14D099F8D0
:100920000080A04528BFA04618464246494600F030
:100930007BFD99F800200346C8EB040445441644A7
:100940004344A4B2ADB2B6B200220392029AD2F8E6
:100950000910069A1144BDF80C20087990427BD901
:100960004FF01509D1F80CB009FB02F90BEB090A9D
:100970001BF80980A04528BFA046184651464246AC
:1009800000F052FD1BF80920DAF80D100346C8EB01
:100990000404454416444344A4B2ADB2B6B2A9B16E
:1009A000DAF81180A045A8BFA0461FFA88F81846BB
:1009B000424600F039FDDAF811200346C8EB040482
:1009C000454416444344A4B2ADB2B6B200220592E7
:1009D000BDF814909AF804204A453AD9DAF809C0CB
:1009E000CDF81CC0C9EB09190CEB090B1CF80980E8
:1009F000A04528BFA04618465946424600F014FDBF
:100A0000DDF81CC0DBF807101CF809200346C8EB12
:100A10000404454416444344A4B2ADB2B6B2A9B1ED
:100A2000DBF80B80A045A8BFA0461FFA88F818463F
:100A3000424600F0F9FCDBF80B200346C8EB040447
:100A4000454416444344A4B2ADB2B6B2059A01324D
:100A5000BDE7039A013278E7049A01324BE7019B24
:100A60005E803D8039E02C6956B90923A3700423C8
:100A7000E37023703B88042B28BF04233B8028E0CD
:100A8000A868013E60B3EB689E4228DA8A8840F28B
:100A900009439A4223D150F8260000F071FD01303D
:100AA0004000C0B220703B88984228BF18464FEAE9
:100AB0008609388000223B885B08013B9A4208DAAD
:100AC000AB6853F80930995C04EB4203013259805A
:100AD000F1E703236370C8F80040012000E0002024
:100AE00009B0BDE8F08F10B5002300F1C40454F83C
:100AF000042F2AB10133042BF9D14FF0FF3010BD80
:100B0000323340F82310104610BD000030B54C7849
:100B1000092C07D8044D55F824401CB1A446BDE863
:100B200030406047002030BDA417000830B54C7835
:100B30000B2C07D8044D55F824401CB1A446BDE841
:100B400030406047002030BDCC17000810B54C780D
:100B5000012C03D00AD3032C04D00CE04C8854B9E8
:100B6000064C04E04C8834B9054C00E0054CA44622
:100B7000BDE810406047002010BD00BFFF0700081F
:100B8000EF070008C507000810B50C7814F0600FD7
:100B900012D104F01F04012C0AD005D3022C0BD172
:100BA000BDE81040FFF7D2BFBDE81040FFF7AEBF71
:100BB000BDE81040FFF7BABF002010BD10B50021FE
:100BC00004460122FFF766FD002384F82C3010BD97
:100BD00038B50368828FC58EDB79AD1A9D42A8BFF8
:100BE0001D46836BADB21A4400212B460446FFF725
:100BF00049FDA84205D02046FFF7E0FF4FF0FF3047
:100C000038BDA38F0344A38738BD38B50368826B12
:100C1000DD79838F9D4204464FF000010FD22B46B1
:100C2000FFF728FD0223226884F82C30D379A16BCA
:100C30000B44A363D279A38F9B1AA38738BDFFF718
:100C400019FD94F84430002B14BF0223032384F8C9
:100C50002C30002384F84430A387A36338BD2DE9EA
:100C6000F34104460E4600F1480500F168082F687C
:100C700057B92046314604F1380204F13C0302B072
:100C8000BDE8F041FFF780BF697933782A790B40DE
:100C90009A420BD104F1400300932046314604F1FF
:100CA000380204F13C03B847012803D9083545450B
:100CB000DDD1DEE702B0BDE8F08138B503698363BA
:100CC0008B79CA7943EA0223838704460D46FFF7EE
:100CD000C6FF00B3E988A9B1A38F22688B42D079FF
:100CE00008D243B193FBF0F200FB1233B3FA83F363
:100CF0005B0900E0002384F844302046BDE838401A
:100D0000FFF783BF0B4620460A46FFF7B3FC0423D8
:100D100084F82C3038BD2046BDE83840FFF74EBF80
:100D200070B5002600EBC605AC6C2CB10136042E64
:100D3000F8D14FF0FF3070BD85F84C1085F84D208C
:100D4000AB64204670BD70B500F130060025056427
:100D50002946324608230446FFF794FC082804D0AD
:100D60002046BDE87040FFF729BFE38E1BB194F920
:100D70003020002A05DA20463146BDE87040FFF7F2
:100D80009CBFA28A9A42EBD32269A2632268A587FC
:100D9000D2799A4234BF0523062384F82C3070BDE3
:100DA00090F82C30062B10B5044610D0072B24D019
:100DB000052B33D1FFF70CFF002833DBA28FE38E26
:100DC0009B1A2268D27993422CDC062310E0FFF7AD
:100DD000FFFE002826DB204604F13001FFF73FFF2D
:100DE00048B100210B4620460A46FFF743FC042386
:100DF00084F82C3010BD204610E000210B460A4636
:100E0000FFF740FC002384F82C30236C1BB12046F4
:100E100004F1300198470023236410BDBDE8104061
:100E2000FFF7CCBE10BD90F82C30032B10B5044654
:100E300007D0042B07D0022B1CD1BDE81040FFF7D0
:100E4000E4BE072313E0036C13B100F130019847AF
:100E500094F8303053B994F83130052B06D1D4F8DA
:100E6000DC30618E5B682046C9B29847002384F865
:100E70002C3010BDBDE81040FFF7A0BE1E4B1F492F
:100E800002221A60083B1A6842F040021A600A689F
:100E900042F410220A601A4A11680029FBDA11682C
:100EA00041F001011160116811F00101FBD11A68D4
:100EB000144842F0804242F470521A60124A136899
:100EC00043F003031360114BA2F2DC7219604FF47C
:100ED00000731360A0F8E03052F81C3C43F00103AB
:100EE00042F81C3C0A4B0B4A1A600F22C3F8042834
:100EF0000122C3F8F827704714000440380004406A
:100F0000100004409800002000080440000E044037
:100F10001800044010280480FEE7704700221A4998
:100F20001A485318834204D2194BD35853500432F1
:100F3000F5E7184A934203D200221A600433F8E717
:100F4000154A164C136843F400731360536F43F44F
:100F500070035367124B9C4203D254F8043B9847EA
:100F6000F8E7104C104B9C4203D254F8043B9847CE
:100F7000F8E7FFF763F90D4C0D4B9C4203D254F890
:100F8000043B9847F8E700BF00000020180000204D
:100F9000301800089401002014ED00E0301800081B
:100FA0003018000830180008301800083018000801
:100FB0003018000820B9064A136843F4804305E05E
:100FC000012804D1024A136803F480431360704778
:100FD00000700040D0F8DC30DA6AD2F8003823F430
:100FE000FE6343EA0111C2F8001870472DE9F0478B
:100FF00011F07F05089ED0F8DCE003F07F0441D1BA
:101000003F2BDEF82C2002D9C2F8005909E01F2B33
:1010100001D9012103E00F2B8CBF02210321C2F86B
:101020000019DEF82C20A1B2C2F81019DEF82C400D
:10103000D4F8002942F00842C4F80029DEF82C2038
:1010400041F0005141F40021C0F8E810C2F8101B33
:10105000DEF82C10D1F8002B42F00842C1F8002B2A
:10106000BEF83210DEF82C209B0841EA0341916261
:10107000B0F8E0100B449BB2A0F8E030A0F8E230EA
:10108000BDE8F08711F0800F4FEA824729B22CD0DB
:10109000B0F8E0C0DEF82C204FEA930905F14008D3
:1010A0004CEA094A42F828A0DEF82C20490102F552
:1010B0001162A4B2CC44A0F8E0C0545001F5106114
:1010C000DEF82C4047F0184242F4004251F804E0A8
:1010D0001A4342EA85524EEA02020A5136B30C2301
:1010E00003FB05008666BDE8F08705F13A0244F48B
:1010F000002440F82240DEF82C20490102F531623C
:10110000545001F53061DEF82C2047F0144451F8BA
:1011100002E044F4004423434EEA03038B502EB113
:101120000C2303FB0500C666BDE8F087BDE8F08729
:10113000B0F8E230D0F8DC2010B5A0F8E0304FF481
:101140003263D16A58580028BEBF585840F08040DA
:101150005850A3F50070D16A4458002CB8BF4458C9
:1011600003F12003BCBF44F080444450B3F5386F12
:10117000E7D1D36A4FF486621A6110BD10B5D0F87A
:10118000DC3051B9DC6AD4F8000912B140F4001027
:1011900001E020F40010C4F80009080646BF01F081
:1011A0007F0148315831490122B1DA6A8B5843F442
:1011B000001308E0D86A0A5822F400120A50DA6ACA
:1011C0008B5843F080538B5010BD11F0800FD0F836
:1011D000DC301ABF01F07F01483158314901DB6A28
:1011E000C858C0F3405070470B0611D4431858310B
:1011F00083F8E4204901D0F8DC3022B1DA6A8B5858
:1012000043F0006303E0DA6A8B5843F080638B504D
:10121000704770B5D0F8DC50E86A01F07F014C01EE
:1012200000F51160065936031AD443F4002606511E
:1012300004F51064EE6AA05940F00440A051E86A39
:10124000013100EB013110461C1A14448D1A002C98
:10125000054403DD50F8044B2C60F5E7184670BDDB
:10126000002070BDF7B50C46B0F8F8108B4228BFCF
:101270000B461E46C91AD0F8DC30A0F8F810DB6A1D
:101280001746621C054603EB023338463246D91B2B
:10129000032A014404DD096840F8041B043AF6E718
:1012A0002AB10B6802A941F8043D00F0BDF8D5F859
:1012B000DC10CB6A04F13A00620103F5316355F8A2
:1012C000200098502C4402F5306294F8E400C96A7A
:1012D0000028535814BF4FF008404FF00440034318
:1012E0003046535003B0F0BDD0F8DC20F8B5D36AD7
:1012F0005E69B504044609D54FF400515961538E17
:10130000A0F8E030BDE8F840FFF79AB9F00631D513
:101310001B6A03F4B012B2F5802F75D103F4F012FA
:10132000B2F5402F03F00F05C3F30A13A4F8F83009
:101330000CBF022201224FF47A7300BF013BFCD1A3
:1013400005EB450313441A3354F8233013B12046F8
:10135000294698470135B4F8F8202D03002393421D
:1013600005DAD4F8DC10C96A04336958F7E70023BA
:10137000A4F8F8300025D4F8DC30DB6A6F0103F6FE
:101380000813DB59D9070ED50C2303FB05439B6ECD
:1013900013B12046E9B29847D4F8DC30DB6A03F693
:1013A00008130122DA510135042DE4D1320508D5A4
:1013B000236A03B19847D4F8DC30DB6A4FF400624B
:1013C0005A61002E08DA636A03B19847D4F8DC301A
:1013D000DB6A4FF000425A61330707D5A36A03B1B5
:1013E0009847D4F8DC30DB6A08225A61A26AD4F844
:1013F000DC3022B1DA6A936943F0080303E0DA6A69
:10140000936923F008039361F8BDD0F8DC30DA6A01
:10141000D2F8043811B143F0020301E023F00203D3
:10142000C2F8043870470000844641EA000313F014
:1014300003036DD1403A41D351F8043B40F8043BDB
:1014400051F8043B40F8043B51F8043B40F8043B9E
:1014500051F8043B40F8043B51F8043B40F8043B8E
:1014600051F8043B40F8043B51F8043B40F8043B7E
:1014700051F8043B40F8043B51F8043B40F8043B6E
:1014800051F8043B40F8043B51F8043B40F8043B5E
:1014900051F8043B40F8043B51F8043B40F8043B4E
:1014A00051F8043B40F8043B51F8043B40F8043B3E
:1014B00051F8043B40F8043B403ABDD2303211D3DE
:1014C00051F8043B40F8043B51F8043B40F8043B1E
:1014D00051F8043B40F8043B51F8043B40F8043B0E
:1014E000103AEDD20C3205D351F8043B40F8043BDE
:1014F000043AF9D2043208D0D2071CBF11F8013BDC
:1015000000F8013B01D30B8803806046704700BFA1
:10151000082A13D38B078DD010F003038AD0C3F1B0
:101520000403D21ADB071CBF11F8013B00F8013B92
:1015300080D331F8023B20F8023B7BE7043AD9D351
:10154000013A11F8013B00F8013BF9D20B78037026
:101550004B7843708B7883706046704700000000C2
:10156000000000000000000000000000000000007B
:10157000000000000000000000000000000000006B
:1015800090F800F06DE9024520F007016FF0000CC3
:1015900010F0070491F820F040F049804FF000046B
:1015A0006FF00700D1E9002391F840F000F1080046
:1015B00082FA4CF2A4FA8CF283FA4CF3A2FA8CF37E
:1015C0004BBBD1E9022382FA4CF200F10800A4FAE5
:1015D0008CF283FA4CF3A2FA8CF3E3B9D1E9042339
:1015E00082FA4CF200F10800A4FA8CF283FA4CF370
:1015F000A2FA8CF37BB9D1E9062301F1200182FA2A
:101600004CF200F10800A4FA8CF283FA4CF3A2FA2F
:101610008CF3002BC6D0002A04BF04301A4612BA3D
:10162000B2FA82F2FDE8024500EBD2007047D1E940
:10163000002304F00305C4F100004FEAC50514F0CF
:10164000040F91F840F00CFA05F562EA05021CBFA0
:1016500063EA050362464FF00004A9E712010002A5
:101660000200004083044057000201020301070505
:101670000102400001000000000000000007058298
:10168000024000010000000000000000090200000C
:1016900002010080329C16000800000000000000DB
:1016A0000100000000000000BC160008000000005F
:1016B0000100000000000000FD1600080904000001
:1016C0000102020100121700082117000813000090
:1016D00000426C61636B20537068657265205465CD
:1016E00063686E6F6C6F67696573004344432D4197
:1016F000434D2044656D6F0044454D4F0009040182
:1017000000020A0000006E16000800000000000041
:101710000000070583031000FF0000000000000028
:101720000005240010010524010001042402000525
:101730002406000108006000020200000306000009
:1017400000050401006CDC02001BB70000366E01CE
:101750000800500104070000020600000004000019
:1017600000BD010580DE800200BD01050800F0001B
:10177000020500000306000000050401000E270713
:1017800080C3C901008793030800500102070000CD
:101790000506000000050400007A030A80DE8002CE
:1017A00000BD0105950700080000000000000000D2
:1017B00000000000000000000F0800088908000871
:1017C000000000003B070008A5060008AD07000860
:1017D0000000000000000000000000000000000009
:1017E00000000000000000000000000000000000F9
:1017F000000000005D070008390800087D0E0008A1
:10180000D50F0008ED0F0008311100087D11000808
:10181000E9110008CB110008131200086512000836
:10182000E91200080B140008000004400100000247
:10183000D1160008EB160008F81600080024F40082
:081840000024F4000024F40070
:0400000508000F1DC3
:00000001FF
