:020000040800F2
:10000000000002202D0400082B0400082904000829
:100010002904000829040008290400080000000041
:100020000000000000000000000000002B04000899
:100030002B040008000000002B0400082B0400081B
:1000400029040008290400082904000829040008DC
:1000500029040008290400082904000829040008CC
:1000600029040008290400082904000829040008BC
:1000700029040008290400082904000829040008AC
:10008000290400082904000829040008290400089C
:10009000290400082904000829040008290400088C
:1000A000290400082904000829040008290400087C
:1000B000290400082904000829040008290400086C
:1000C000290400082904000829040008290400085C
:1000D000290400082904000829040008290400084C
:1000E000290400082904000829040008290400083C
:1000F000290400082904000829040008290400082C
:10010000290400082904000829040008290400081B
:10011000290400082904000829040008290400080B
:1001200029040008290400082904000829040008FB
:1001300029040008290400082904000829040008EB
:1001400029040008290400082904000829040008DB
:1001500029040008290400082904000829040008CB
:1001600029040008290400082904000829040008BB
:1001700029040008290400082904000829040008AB
:10018000290400082904000829040008290400089B
:10019000290400082904000829040008290400088B
:1001A00029040008290400082904000870B540F259
:1001B000066000F02CF94FF4C06000F028F940F61A
:1001C000840000F024F94FF4005300220121284854
:1001D000284E00F083F84FF40073002202212648D5
:1001E00000F07CF84FF400720721234800F093F8E8
:1001F0004FF4E131214800F0B9F808211F4800F020
:10020000CDF800211D4800F0D2F808211B4800F06D
:10021000DAF80021194800F0D0F80021174800F062
:10022000D8F8164800F0DBF8154800F05BFF002412
:1002300025464FF400510E4800F048F8092C14BF31
:100240000134002421460F4800F0FAFE3368986814
:1002500000F0F2F901350A2095FBF0F300FB13538F
:100260000BB900F001FF084B00BF013BFCD1E0E7F8
:10027000001802403004002000000240001001403D
:10028000805C00089A5C0008E09304000228F8B53E
:100290000D46164614DC0C462178601B274689B1B2
:1002A00086420CDD084800F09FF83B780A2B04F1E9
:1002B0000104F1D10D21044800F096F8ECE7F8BDF7
:1002C0004FF0FF30F8BD00BF00100140426921EA45
:1002D0000203114043EA014181617047F0B50668AD
:1002E000C568002743FA07F4E4070ED54FEA470E26
:1002F000032404FA0EF4E443264001FA0EFC2C40D9
:1003000002FA0EF546EA0C0625430137102FE9D113
:100310000660C560F0BDF0B5046A436A002542FA84
:1003200005F6F70741BF0F26AF00BE40B44305F105
:10033000010544BF01FA07F63443082DEFD100252B
:1003400005F1080642FA06F6F60741BF0F26AF0090
:10035000BE40B34305F1010544BF01FA07F633433C
:10036000082DEDD104624362F0BD0000084A094B3C
:1003700010B520F4806494421B6804BF064B1B68D0
:1003800001EB43034900B3FBF1F3836010BD00BFF1
:10039000001001400000002004000020C36808296C
:1003A0000CBF23F4805343F48053C3607047036948
:1003B00023F44053194301617047C36823F4C063B9
:1003C0001943C1607047C36823F00C031943C1602F
:1003D0007047436923F44073194341617047C36810
:1003E00043F40053C360704738B505460C4600F02F
:1003F0000AF828462146BDE8384000F000B8C1F3AD
:1004000008014160704703681B06FCD5704743092B
:1004100003F1804303F50E3300F01F001968012239
:1004200082400A431A607047FEE7704700221A496B
:100430001A485318834204D2194BD35853500432EC
:10044000F5E7184A934203D200221A600433F8E712
:10045000154A164C136843F400731360536F43F44A
:1004600070035367124B9C4203D254F8043B9847E5
:10047000F8E7104C104B9C4203D254F8043B9847C9
:10048000F8E7FFF793FE0D4C0D4B9C4203D254F856
:10049000043B9847F8E700BF00000020B0090020A7
:1004A000385F0008EC09002014ED00E0305F000820
:1004B000305F0008305F0008305F0008305F0008E0
:1004C000305F0008B1F90C309AB22DE9F0410D46C9
:1004D000110780463CD46A6843F40063002AAB816C
:1004E00073DDAC6A002C4BD09BB203F48052002128
:1004F00092B2D8F80060C8F80010002A69D02A6DBE
:100500005F0705D569682B6B521A0BB1EB6BD21ADA
:100510000023E9694046A047441C3CD0B5F90C30A3
:100520002A692A6023F400630022AB81DB046A603D
:1005300049D4296BC8F8006011B305F14003994212
:1005400002D0404600F060F900202863BDE8F08149
:100550002E69AEB12C682E6090070CBF6B6900232A
:10056000A41BAB600AE0234632466F6AE969404645
:10057000B8470028A4EB0004064404DD002CF2DC9C
:100580000020BDE8F081AB8943F04003AB814FF020
:10059000FF30BDE8F081D8F800201D2AF3D81A4BAF
:1005A000D34003F0010383F00104002BEBD0B5F935
:1005B0000C302969296023F40063D9046C60AB8195
:1005C000B7D5002AB5D12865B3E7EA6B002A88DCE5
:1005D000D6E70123E9694046A047431C024602D002
:1005E000AB89AC6A8CE7D8F80030002BF8D01D2B13
:1005F00001D0162B02D1C8F80060C1E7AB8943F0E7
:100600004003AB81BDE8F0810100402010B50446F5
:1006100082B008B1836B53B1B1F90C0008B902B0D4
:1006200010BD204602B0BDE81040FFF74BBF01915E
:1006300000F092F80199EFE720B1054B01461868E8
:10064000FFF7E4BF034B0449186800F0C5B900BFC9
:1006500030040020A05C00080D060008014900F0ED
:10066000BBB900BFAD3A00082DE9F04F354B4568E6
:10067000C3630024074600F53B7204230321C0F83E
:10068000E412C0F8E822C0F8E04283B02C606C604D
:10069000AC606C66EC812C616C61AC61AB81214615
:1006A00005F15C00082200F079FCBE68DFF898B024
:1006B000DFF898A0DFF89890DFF89880C5F820B0B0
:1006C00001230922C5F824A0C5F82890C5F82C807C
:1006D000ED612146F381B28106F15C003460746003
:1006E000B460746634617461B4610822019300F0EF
:1006F00055FCFD68F66112200222C6F820B0C6F84B
:1007000024A0C6F82890C6F82C802146A881EA814A
:100710002C606C60AC606C662C616C61AC6105F146
:100720005C00082200F03AFC019BED61C5F820B0A6
:10073000C5F824A0C5F82890C5F82C80BB6303B089
:10074000BDE8F08F5D060008191100083D11000892
:100750007911000899110008836B03B17047FFF706
:1007600083BF00BF704700BF704700BFF8B5234F7D
:100770000C46064600F060FCBB685D6825F003058A
:10078000291B01F6EF7121F47F6121F00F01A1F522
:100790008054B4F5805F07DB0021304600F0AAFCEE
:1007A000BB682B44984204D0304600F047FC002040
:1007B000F8BD6142304600F09DFC01300DD0104B79
:1007C000BA6819682D1B45F001053046091B5560B4
:1007D000196000F033FC0120F8BD0021304600F024
:1007E00089FCBA68831A0F2BDEDD064C04492468A5
:1007F00043F00103001B53600860D5E73404002078
:10080000BC09002040080020002945D02DE9F04116
:100810000D46804600F010FC55F8047C6A4927F02C
:100820000103A5F10804E2188E685068B24220F076
:10083000030062D0FE0750600BD455F8087CE41B1F
:1008400001F1080EA56875453B446FD0E768EF607D
:10085000BD6015186D68ED0742D543F00102626076
:10086000E350B3F5007F18D2DB085A1C4D6851F8ED
:100870003270A76001209B1000FA03F301EBC20065
:100880001D430838E0604D6041F83240FC6040464E
:10089000BDE8F04100F0D2BB70475A0A042A53D891
:1008A0009A0902F139077F0002F1380501EB870050
:1008B00051F827204449083890424DD0516821F022
:1008C00003018B4202D292689042F7D1D068E06077
:1008D000A2608460D4604046BDE8F04100F0AEBB49
:1008E00095683A4FBD4203443FD0D068E86043F07A
:1008F000010285606260E350B3E7FF07034407D459
:1009000055F8082CA41A1344A068E268C2609060ED
:100910002F4A126843F00100934260608C60B6D3A6
:100920002C4B40461968FFF721FFB0E711184968C2
:10093000C90744D49168D268CA60034443F00100F7
:1009400091606060E350A2E7142A17D802F15C07B7
:100950007F0002F15B05A9E7AA104B68012505FAA3
:1009600002F213434B600246B1E743F001024C61CF
:100970000C61E560A5606260E35088E7542A06D800
:100980001A0B02F16F077F0002F16E058EE7B2F5D8
:10099000AA7F06D8DA0B02F178077F0002F177050B
:1009A00084E740F25450824206D89A0C02F17D0747
:1009B0007F0002F17C0579E7FE277E2576E743F08C
:1009C00001026260E35062E7340400203C0400202E
:1009D0003C080020B80900202DE9F84310F53877CD
:1009E0001FD0884606464FF000097D68BC68013D6F
:1009F00011D4A389012B05F1FF3508D9B4F90E30C4
:100A000001332146304602D0C04749EA00096B1C39
:100A100004F16804EDD13F68002FE6D14846BDE8F7
:100A2000F883B9464846BDE8F88300BF2DE9F04F8A
:100A300001F10B05162D83B0064640F29F8035F07C
:100A4000070500F1BF80A94200F2BC8000F0F4FA73
:100A5000B5F5FC7FC0F09C826B0A00F0BA80042BD5
:100A600000F28381A80900F1390E4FEA4E033830B5
:100A7000C44F07EB8303A3F108015C68A14207D1CF
:100A8000ACE0002A80F2AC80E468A14200F0A680CD
:100A9000636823F003035A1B0F2AF2DDB9493C694E
:100AA00001F1080E744500F0B381636823F003037D
:100AB0005A1B0F2A00F39981002AC1F814E0C1F8EB
:100AC00010E080F29E80B3F5007F80F06781DB0844
:100AD00003F1010C01229B1002FA03F34A6851F85A
:100AE0003C80C4F8088001EBCC091A43A9F1080343
:100AF000E3604A6041F83C40C8F80C408310012490
:100B00009C40944200F28A80144206D120F00300F7
:100B10006400144200F10400FAD007EBC009CC468F
:100B20008046DCF80C108C4507D173E1002A80F276
:100B30008181C9688C4500F06D814B6823F0030307
:100B40005A1B0F2AF2DD0C46D1F80CC054F8088F5E
:100B50004B1945F001054D6042F00101C8F80CC089
:100B60003046CCF808807B613B61C3F80CE0C3F8E9
:100B700008E059609A5000F061FA1FE0102921D86E
:100B800000F05AFA1025062302207E4F07EB83035C
:100B9000A3F108025C68944200F045816368E16853
:100BA000A56823F00303234430465A68E96042F005
:100BB00001028D605A6000F041FA0834204603B00B
:100BC000BDE8F08F00240C232046336003B0BDE85D
:100BD000F08F80234FF0400E3F2049E770465DE7DD
:100BE0002344E1685A68A56842F00102E960304692
:100BF0008D605A6000F022FA0834204603B0BDE848
:100C0000F08F234430465A6842F001025A6000F0E7
:100C100015FA0834204603B0BDE8F08FBC6863685D
:100C200023F00308A84504D3C5EB08030F2B00F3FA
:100C30008C80554BDFF860911A68D9F80030013389
:100C40002A4404EB080A00F0608102F580520F325A
:100C500022F47F6222F00F0211463046019200F02A
:100C600049FAB0F1FF3F8346019A00F0588182456E
:100C700000F2FC80454B1968DA451144196000F018
:100C80005381D9F80000DFF810E101301BBFCAEB37
:100C90000B0A5144CEF800B019601BF0070100F0B8
:100CA0001781C1F10800C1F58051834408315A44CD
:100CB000C2F30B02C2EB010949463046019300F032
:100CC00019FA431C019B00F03F81CBEB00024A4420
:100CD00042F001021968C7F808B04944BC42CBF899
:100CE00004201960DFF8A49016D0B8F10F0F40F27D
:100CF000FD806268A8F10C0323F00703E01802F0FE
:100D000001024FF0050E1A430F2B6260C0F804E099
:100D1000C0F808E000F21C811D4BBC681A689142C3
:100D200088BF19601B4B1A689142626888BF1960BE
:100D300022F003029542A2EB050301D80F2B04DC3D
:100D4000304600F07BF9002438E7621943F00103D4
:100D500045F0010565603046BA60536000F06EF9F9
:100D60000834204603B0BDE8F08F142B71D9542B02
:100D700000F2A480280B00F16F0E4FEA4E036E3094
:100D800076E600BF34040020B8090020BC0900202A
:100D9000B4090020B0090020400800205A0A042AA3
:100DA0005ED9142A00F2B38002F15C0149005B3283
:100DB00007EB810C57F82110DFF8DC81ACF1080C4F
:100DC0008C4500F088804A6822F00302934202D2E8
:100DD00089688C45F7D1D1F80CC07A68C4F80CC08A
:100DE000A160CCF80840CC6088E6631942F00107A6
:100DF00045F00105656030464B610B61C3F80CE0BE
:100E0000C3F808E05F609A50083400F017F9D5E69F
:100E10004A6873E608F1010818F0030F0CF1080C9A
:100E20007FF47FAE30E0DC68A34208BF02303FF4BD
:100E300035AEB3E60B440C465A68C96854F8085FEF
:100E400042F001025A603046E9608D6000F0F6F829
:100E5000B4E603F15C0E03F15B004FEA4E0307E6D4
:100E60009A0902F1390149003832A1E7BC424A4BE4
:100E70003FF400AF9C68626822F003025AE759F819
:100E80000839994540F0828010F0030F00F1FF30DF
:100E9000F5D17B6823EA04037B6064009C423FF643
:100EA000BDAE002C3FF4BAAE1C4240467FF435AED6
:100EB00064001C4200F10400FAD02EE6B3F5AA7FCC
:100EC00018D8E80B00F1780E4FEA4E037730CFE5E3
:100ED0004FF48051EBE60121D8F80430921001FA6A
:100EE00002F21A43C8F80420614677E70123CBF8E1
:100EF000043025E740F25452934220D8A80C00F168
:100F00007D0E4FEA4E037C30B2E51032A4E6542A3F
:100F100026D81A0B02F16F0149006E3248E7BC680F
:100F2000626822F0030205E7CAF30B0000287FF491
:100F3000A8AE4244BB6842F001025A60ECE6FE23D0
:100F40004FF07F0E7E2093E501224FF00009C1E6AD
:100F500004F108013046FFF757FCD9F80010DBE632
:100F6000B2F5AA7F05D8DA0B02F178014900773291
:100F70001EE740F254518A4205D89A0C02F17D01D5
:100F800049007C3214E7FE217E2211E77B6884E76A
:100F9000E808431C5B00F8E53404002070B48407C3
:100FA00046D0541E002A41D0CDB2034602E0621E54
:100FB000E4B3144603F8015B9A07F8D1032C2ED949
:100FC000CDB245EA05250F2C45EA054519D903F1AF
:100FD00010022646103E0F2E42F8105C42F80C5CC0
:100FE00042F8085C42F8045C02F11002F2D8A4F165
:100FF000100222F00F0204F00F041032032C1344ED
:101000000DD91E462246043A032A46F8045BFAD854
:10101000221F22F003020432134404F003042CB113
:10102000C9B21C4403F8011BA342FBD170BC70473A
:1010300014460346C2E700BF704700BF704700BFB9
:101040000FB400B5074983B004AB086853F8042B0C
:101050008168019300F024F903B05DF804EB04B05B
:10106000704700BF30040020034B1B6801469A689C
:10107000184603F0DDBB00BF30040020F0B5054684
:1010800089B008460C4600F09BF8AB6B144F0494F3
:101090000126441C04A9022203940590AC6806971B
:1010A000079601910292B3B1B4F90C309A0406D4B8
:1010B000626E43F4005322F40052A381626621461B
:1010C000284601AA02F034FD002814BF4FF0FF307B
:1010D0000A2009B0F0BD2846FFF73EFBE4E700BF59
:1010E000A45C0008024B01461868FFF7C7BF00BFA9
:1010F0003004002038B5074C00230546084623601D
:1011000004F0B0FD431C00D038BD2368002BFBD099
:101110002B6038BDE809002010B50C46B1F90E105F
:1011200003F0A8FB002803DB236D0344236510BDF7
:10113000A38923F48053A38110BD00BF2DE9F041A2
:101140001646B1F90C201F46D3050C46054607D5B7
:1011500000220223B1F90E1002F07AFEB4F90C203D
:10116000B4F90E1022F48052A2813B463246284642
:10117000BDE8F04101F05EBC10B50C46B1F90E10AF
:1011800002F066FEA389421C0EBF23F4805343F491
:1011900080532065A38110BDB1F90E1001F0C4BCCD
:1011A000000000000000000000000000000000003F
:1011B000000000000000000000000000000000002F
:1011C00090F800F06DE9024520F007016FF0000C87
:1011D00010F0070491F820F040F049804FF000042F
:1011E0006FF00700D1E9002391F840F000F108000A
:1011F00082FA4CF2A4FA8CF283FA4CF3A2FA8CF342
:101200004BBBD1E9022382FA4CF200F10800A4FAA8
:101210008CF283FA4CF3A2FA8CF3E3B9D1E90423FC
:1012200082FA4CF200F10800A4FA8CF283FA4CF333
:10123000A2FA8CF37BB9D1E9062301F1200182FAED
:101240004CF200F10800A4FA8CF283FA4CF3A2FAF3
:101250008CF3002BC6D0002A04BF04301A4612BA01
:10126000B2FA82F2FDE8024500EBD2007047D1E904
:10127000002304F00305C4F100004FEAC50514F093
:10128000040F91F840F00CFA05F562EA05021CBF64
:1012900063EA050362464FF00004A9E7000000007E
:1012A0002DE9F04FC1B01C46049116460546069044
:1012B00002F0C0FD036813931846FFF781FF0A94FC
:1012C00012901DB1AB6B002B00F023810498B0F994
:1012D0000C2093B2990407D4416E42F4005321F4D8
:1012E0000051838141669BB21A0740F1DD80049A68
:1012F0001269002A00F0D88003F01A030A2B00F0CC
:10130000E1809FED877B00238DED107B0E9325936D
:10131000249315930793DFF814A230AB23939946D7
:10132000B04698F800304446EBB1252B02D11AE0C4
:10133000252B03D014F8013F002BF9D1C8EB04058D
:101340008DB1249B259AC9F8008001332A44072BCC
:10135000C9F804502592249300F3C28009F10809CA
:10136000079B2B4407932378002B00F0C2800023B7
:101370001A468DF86F301946089303934FF0FF3BE0
:10138000637804F101085D4608F10108A3F120002B
:10139000582800F25984DFE810F00F04570457046E
:1013A000180457045704570457045704570462039A
:1013B000490457045D0009015704250170037003B7
:1013C000700370037003700370037003700357049D
:1013D0005704570457045704570457045704570435
:1013E000570480039D0357049D0357045704570473
:1013F0005704EB03570457042C01570457045704B0
:1014000057045704550157045704B40257045704AE
:1014100057045704570457045704570457045704F4
:10142000F5020F039D039D039D033F030F03570424
:101430005704460357045003CB00640020045704AC
:1014400028045704F20357045704FA0308980A9330
:1014500040420890039B43F00403039398F8003044
:1014600092E70A98AB46002104688DF86F10071DBB
:101470000398302378228B458DF870304FF00005AB
:101480008DF8712040F00203C0F2FB8320F080034E
:1014900043F00203039354EA05030A9700F0CC8358
:1014A0000F460D9220485DE20499069801F0D8FAA3
:1014B000002841F03D80049B9B8903F01A030A2B0E
:1014C0007FF41FAF0499B1F90E30002BFFF619AF6E
:1014D00023463246069801F077FA41B0BDE8F08F16
:1014E00023AA0499069803F007FC48B90DF1C00936
:1014F00036E7259B23B10698049923AA03F0FCFB49
:10150000049B9B89590601F11380079841B0BDE8FF
:10151000F08F0698FFF720F9D8E600BFAFF3008000
:101520000000000000000000DC5C0008A85C00086F
:101530000D93AB46002A41F02B82039A12F0200350
:1015400064D00A9F073727F00703002703F108013B
:10155000BB450A91D3E900458DF86F70C0F2BA8699
:1015600022F08003039354EA050300F0828330AE37
:10157000E20842EA4572E90804F007030D46144602
:10158000303354EA050206F8013DF1D1039AD2073F
:1015900040F19680302B00F093803022731E06F8C5
:1015A000012C30AAD21A09921E468CE098F800301D
:1015B0002A2B08F1010401F0C981A3F130000928A8
:1015C00098BF002501F2668114F8013B05EB850503
:1015D00000EB4505A3F130000928F5D945EAE5758A
:1015E000A046D3E6039B43F08003039398F80030B2
:1015F000CAE60D93AB46002A41F0D281039B43F02B
:1016000010030393039A12F020039AD1039911F067
:10161000100200F034860A988DF86F30BBF1000F8D
:10162000046800F104074FF00005C0F252860A4634
:1016300022F08002039254EA05020A9700F019830F
:101640001F4694E70D93AB46002A41F09981039B16
:1016500043F010030393039A12F0200300F0FA847E
:101660000A9F073727F00703002703F10801BB454E
:101670000A91D3E900458DF86F70C0F2238522F0FE
:101680008003039354EA050300F0BC81002D08BFDA
:101690000A2CC0F01B8530AE204629460A220023C2
:1016A00004F02CF9303206F8012D2046294600239B
:1016B0000A2204F023F904460D4654EA0503EBD14F
:1016C00030AB9B1B0993099B5B45B8BF5B460593F9
:1016D00000230F9317B1059B01330593039B13F070
:1016E00002030B9302D0059B02330593039B13F077
:1016F00084030C9340F0D282089B059A9D1A002D1A
:1017000040F3CC82102D2599249AA84F27DD1496FA
:1017100048461024B946049E2F46069D04E0103F1B
:10172000102F00F1080016DD0132A04B2492103179
:10173000072A259180E81800F1DD23AA31462846C2
:1017400003F0DAFA00287FF4DBAE103F102F259962
:10175000249A30A8E8DC149E3D464F46814601326B
:101760006C18072A25942492C9F80070C9F804500F
:1017700000F328849DF86F7009F1080977B1249B64
:10178000013301340DF16F010122072B25942493BD
:1017900089E8060000F3A08309F108090B9B6BB1EF
:1017A000249B013302341CA90222072B2594249385
:1017B00089E8060000F39C8309F108090C9B802B43
:1017C00000F0D082099BC3EB0B07002F33DD784A72
:1017D000249B0B92102F22DD22464FF0100B069D0A
:1017E000049C04E0103F102F09F1080916DD0133B5
:1017F0001032072B2592249389E8000CF2DD23AAEE
:101800002146284603F078FA00287FF479AE103F8D
:10181000102F259A249B0DF1C009E8DC14460133F2
:101820000B9A24933C44072B259489E8840000F309
:10183000478309F10809039BDD0500F13182249BF0
:101840000999C9F8006001330C44072B2594C9F8A5
:101850000410249300F31E8309F10809039B580721
:101860003FD5089B059A9D1A002D3ADD102D249B2B
:101870004E4F23DD22461026DDF818B0049C04E00C
:10188000103D102D09F1080917DD01334749249354
:101890001032072B259289E84200F1DD23AA214668
:1018A000584603F029FA00287FF42AAE103D102D87
:1018B000259A249B0DF1C009E7DC144601332C4422
:1018C000072B25942493C9F80070C9F8045008DD4B
:1018D00023AA0499069803F00FFA00287FF410AEAB
:1018E000259C079B089A05998A42ACBF9B185B18F8
:1018F0000793002C40F0DA82002324930DF1C009F5
:101900000FE50D93AB46002A41F03680039B294832
:101910009C0640F146810A9F073727F00703D3E969
:10192000004503F108020A92039A12F0010700F041
:10193000EB8254EA050300F080859DF834208DF891
:1019400071200027039A8DF86F703023BB458DF806
:10195000703042F00203C0F2358722F0800343F07A
:101960000203039330AE230904F00F0143EA057329
:101970002A091C461546435C06F8013D54EA050356
:10198000F1D19DE60A990D930A688DF898200023FD
:101990000A461F468DF86F30043201230593BB467B
:1019A0000F970A92099326AE98E600BFFC5C0008E8
:1019B000A85C0008C85C00080D93AB46002A40F004
:1019C000E387039B9B0674D50A9F073727F0070719
:1019D000D7E9002307F108010A9114461D46002AA1
:1019E00073F10003C0F23A84BBF1000F9DF86F70F1
:1019F000C0F26883039B23F08003039354EA05033A
:101A00007FF444AEBBF1000F40F008844FF0000BB0
:101A1000CDF824B030AE56E6039B43F04003039369
:101A200098F80030B0E498F800306C2B00F0D085C6
:101A3000039840F010000390A6E4002A40F0988735
:101A4000039B9F0640F1E2840A9A07991368CD1719
:101A50000846043229460A92C3E9000161E40A9C5F
:101A60002368089318460028234603F10403FFF671
:101A7000EDAC0A9398F8003086E4A3F1300000231F
:101A80001C4618F8013B04EB840400EB4404A3F16A
:101A900030000928F5D9089478E40D93AB46002A64
:101AA00040F06287039B43F010030393039B9B0664
:101AB0008AD4039BDF0600F19482039B5E0640F10B
:101AC00090820A99B1F900400431E51722462B466D
:101AD0000A9184E70D93AB46002A40F06987039B87
:101AE0000A9F1D0707F1070740F1858427F00703C8
:101AF00093ED007B8DED107B03F108020A92DDE986
:101B0000101222F0004316911793DDE916454FF0AD
:101B1000FF3220462946B54B03F0B2FE002840F0C4
:101B2000EB834FF0FF32B14B2046294603F08AFE8B
:101B3000002840F0E18300220023DDE9100103F0DA
:101B400077FE002840F044869DF86F70A84EA94BA0
:101B5000039921F0800103910D9903224FF0000BAE
:101B600005924729D8BF1E460992CDF83CB0B1E591
:101B7000039B43F00803039398F8003004E40D93AB
:101B8000AB46002A3FF467AD8DF86F1063E50D9307
:101B9000AB46002A40F00887039B97489C063FF518
:101BA000BAAE039BD90640F198830A9A13460433D0
:101BB00014680A930025B7E698F8003000297FF4EE
:101BC000E3AB01222021FFF7DFBB039B43F00103BE
:101BD000039398F80030FFF7D7BB039B43F0200333
:101BE000039398F80030FFF7CFBB0A9A0D9316685D
:101BF00000248DF86F40171D002E00F0AC85002DDD
:101C0000C0F2FD842A462146304602F0B1F9002890
:101C100000F01686831B0993A34623EAE3730A9711
:101C20000593CDF83CB09DF86F7053E598F80030FF
:101C300001222B21FFF7A8BB6F480D92BBF1000FCB
:101C400040F073815F46E1E60D93002A40F0A486E0
:101C50000D9A002A3FF44DAC002301211F46059147
:101C60008DF898208DF86F309B460F93099126AE22
:101C700034E5BBF1000F00F0D485002700240025D7
:101C800075E45D4803930D9254EA05030A974FF0FB
:101C900000077FF467AE0024002563E6259C6DE510
:101CA0000D9B652B40F3AE8000220023DDE910017F
:101CB00003F0B4FD002800F03A81249B4F4AC9F894
:101CC0000020013301340122072B25942493C9F805
:101CD000042000F3CC8309F108091D9B0E9A93425E
:101CE00003DB039BD8077FF5B9AD249B1299139AA8
:101CF000C9F8002001330C44072B2594C9F80410BF
:101D0000249300F36F8409F108090E9B5D1E002DDA
:101D10007FF7A4AD3A4A249B0B92102D40F3B48177
:101D20001026069FDDF810B005E009F10809103D06
:101D3000102D40F3A98101331034072B25942493EF
:101D4000C9F800A0C9F80460EFDD23AA5946384657
:101D500002F0D2FF00287FF4D3AB259C249B0DF129
:101D6000C009E4E7089B059A9F1A002F7FF72AAD68
:101D7000234A249B0B92102F2BDD4A462146B9465D
:101D800010253746069C049E06E0A9F11009B9F11A
:101D9000100F02F1080218DD01331031072B2591D5
:101DA0002493C2F800A05560EFDD23AA31462046F7
:101DB00002F0A2FF00287FF4A3ABA9F11009B9F14A
:101DC000100F2599249B30AAE6DC3E460C464F4670
:101DD000914601330B9A24933C44072B259489E8C0
:101DE000840000F32B8209F10809EBE4FFFFEF7F89
:101DF000BC5C0008B85C0008DC5C0008F85C00080B
:101E0000A85C00080E9B249D012B40F3D081013576
:101E100001340123072D25942495C9F80060C9F8E1
:101E2000043000F3E18109F10809129A139BC9F803
:101E3000003001351444072D25942495C9F8042059
:101E400000F3DF8109F1080900230022DDE9100118
:101E500003F0E4FC0E9B002840F0CC80013B0135F0
:101E600001361C44072D24952594C9F80060C9F853
:101E7000043000F3AC8109F10809159AC9F804206F
:101E8000013514441FAB072D25942495C9F8003063
:101E90007FF7E2AC23AA0499069802F02DFF0028F0
:101EA0007FF42EAB259C0DF1C009D7E423AA049939
:101EB000069802F021FF00283FF41EADFFF720BB7B
:101EC00023AA0499069802F017FF00287FF418ABA4
:101ED000259C0DF1C009AEE423AA0499069802F0EE
:101EE0000BFF00287FF40CAB259C0DF1C00955E4D5
:101EF00023AA0499069802F0FFFE00287FF400ABA5
:101F0000259C0DF1C00959E4BBF1000F8DF86F70ED
:101F1000C0F20B8322F08003039354EA05037FF49D
:101F200021ADBBF1000F3FF48DAE0027B3E61D9D40
:101F3000002D40F3A8820F9B0E9A9342A8BF134630
:101F4000002B1D460DDD249BC9F8006001332C4495
:101F5000072B2594C9F80450249300F3828309F1D8
:101F600008090F9B002DA8BF5B1B002B1D4640F3EB
:101F7000BE80B94A249B0B92102D40F36B822246FF
:101F80001027DDF818B0049C05E009F10809103DA0
:101F9000102D40F35E8201331032072B25922493DB
:101FA000C9F800A0C9F80470EFDD23AA21465846FD
:101FB00002F0A2FE00287FF4A3AA259A249B0DF12B
:101FC000C009E4E723AA0499069802F095FE0028C8
:101FD0007FF496AA9DF86F70259C0DF1C009FFF75C
:101FE000CDBB0A9A146813460433E5170A932246B8
:101FF0002B46F4E45E1E002E7FF73FAF964B0B930B
:10200000102E40F31081CDF824801027B046DDF863
:1020100018B0049E07E009F10809A8F11008B8F10A
:10202000100F40F3FD8001351034072D25942495C1
:10203000C9F800A0C9F80470EDDD23AA314658465E
:1020400002F05AFE00287FF45BAA259C249D0DF126
:10205000C009E2E7039911F0100220D00A988DF828
:102060006F30BBF1000F046800F104074FF000056A
:1020700026DB0A4622F08002039254EA05020A9700
:102080001F467FF403ABBDE401330B9A24932C4429
:10209000072B259489E824007FF7DEABFAE6039945
:1020A00011F0400340F048820A998DF86F30BBF17F
:1020B000000F0C6801F104074FF0000580F21A814F
:1020C0000A971F4654EA05037FF4E0AA40AE303475
:1020D00006F8414DFFF7F4BA23AA0499069802F0D6
:1020E0000BFE00287FF40CAA259C0DF1C0090F9A65
:1020F0001D9B324417460E9A934247DB039AD20740
:1021000044D40E990E44F51BCB1A9D42A8BF1D4620
:10211000002D2E460DDD249AC9F8007001322C44A2
:10212000072A2594C9F80450249200F32B8309F15F
:102130000809002EACBF9D1B1D46002D7FF78EABFE
:10214000454A249B0B92102D9EDD1026069FDDF83C
:1021500010B004E009F10809103D102D94DD0133A1
:102160001034072B25942493C9F800A0C9F8046003
:10217000F0DD23AA5946384602F0BEFD00287FF460
:10218000BFA9259C249B0DF1C009E5E7249A12986C
:102190001399C9F8001001320444072A2594C9F89C
:1021A0000400249200F3CA8209F10809A9E7039BFD
:1021B000DF073FF52CAE013501340123072D2594AF
:1021C0002495C9F80060C9F804307FF754AE23AAFB
:1021D0000499069802F090FD00287FF491A9259CAF
:1021E000249D0DF1C00948E623AA0499069802F03F
:1021F00083FD00287FF484A9259C249D0DF1C0094E
:1022000013E623AA0499069802F076FD00287FF4CD
:1022100077A9259C249D0DF1C00915E6002455E7FA
:102220004646DDF824800B9B01353444072D259468
:10223000249589E848007FF71EAEC8E723AA0499D1
:10224000069802F059FD00287FF45AA9259C0DF14B
:10225000C009FFF7B7BA00BFA85C000864424FF09E
:102260002D0765EB4505BBF1000F8DF86F70FFF68C
:102270000DAA039B23F080030393FFF707BA03998A
:1022800011F0400317D00A988DF86F200346BBF178
:10229000000F03F1040304884FF00005C0F214831B
:1022A00021F08001039154EA05010A933FF4E1AC67
:1022B0001746FFF75CB90A998DF86F30BBF1000F34
:1022C0000C6801F104074FF0000502DB039AFFF7E9
:1022D000AFB90A970027FFF74AB9039B0A9A13F090
:1022E000400F134600F04081043314880A93002500
:1022F000FFF71ABB039ABDE6DDE9100102460B4663
:1023000003F0BEFA002840F0E1820D9BBBF1FF3FD5
:1023100023F0200700F05982472F00F05381119BD2
:10232000039A002B42F480720B92C0F256829DED0C
:10233000107B8DED187B002305930D9B662B00F021
:102340003082462B00F02381452F0CBF0BF1010595
:102350005D4621AA1EAB019200932A461DAB0221C5
:102360009DED180B069800F087FC0D9B672B064629
:1023700040F07182039BDA0740F1908274190022C9
:102380000023DDE9180103F049FA002840F07581C7
:10239000219B9C4206D930215A1C21921970219B05
:1023A0009C42F9D89B1B472F0E9300F053810D9B45
:1023B000652B40F35F820D9B662B1D9B0F9300F0F6
:1023C00022820F9A0E998A42C0F21082039BDB0789
:1023D00000F1668222EAE273099267220D92059A61
:1023E000002A40F0148105930B9B039393469DF8BC
:1023F0006F70FFF76FB927F0070797ED007B07F1C4
:1024000008038DED107B0A93FFF779BB039BDE0673
:102410000BD4039B5D0608D50A9A136804320A920E
:10242000BDF81C201A80FEF77CBF0A9A136804329C
:102430000A92079A1A60FEF774BF0027BB458DF811
:102440006F70FFF628AC039B23F080030393FFF724
:10245000F5BB144601330B9A24932C44072B259487
:1024600089E824003FF738AE09F108093FE623AABE
:102470000499069802F040FC00287FF441A8259CAE
:102480000DF1C00929E4249BBA4AC9F800200133A0
:1024900001340122072B25942493C9F8042069DC18
:1024A00009F108092DB90E9B1BB9039BD9077FF5CC
:1024B000D5A9249B1299139AC9F8002001330C4422
:1024C000072B2594C9F80410249300F3D58109F152
:1024D00008096D42002D40F3B080A74A0B92102DE1
:1024E00040F31F8122461027DDF818B0049C05E058
:1024F00009F10809103D102D40F31281013310320B
:10250000072B25922493C9F800A0C9F80470EFDDC9
:1025100023AA2146584602F0EFFB00287EF4F0AFD4
:10252000259A249B0DF1C009E4E70A9FFFF7ACBB95
:102530004FF0FF30FEF7EABF0A988DF86F20034690
:10254000BBF1000F03F1040304884FF00005C0F253
:10255000B08121F08001039154EA05010A931746E6
:102560007FF494A8FFF74EBA043314680A93002549
:10257000FFF7DAB923AA0499069802F0BDFB0028F8
:102580007EF4BEAF1D9D259C0DF1C0098AE721AAEE
:102590001EAB019200935A461DAB03219DED180B13
:1025A000069800F069FB5D4606460D9B462B06EB40
:1025B00005047FF4E4AE3378302B00F096811D9D46
:1025C0002C44DCE6BBF1000F08BF4FF0010BA6E680
:1025D000039B43F02003039308F1010898F80030AF
:1025E000FEF7D2BE23AA0499069802F085FB0028C4
:1025F0007EF486AF259C0DF1C009FFF786BB3046FF
:10260000FEF7DEFDA34603460990FFF706BB2D2724
:1026100005930B9B03938DF86F704FF0000BFFF742
:102620005AB823AA0499069802F066FB00287EF4A3
:1026300067AF259C249B0DF1C0090E99C9F8006075
:1026400001330C44072B25942493C9F804107FF719
:1026500003A91FE41D9BD81C11DB9B450FDB0F93C7
:10266000AFE623AA0499069802F046FB00287EF400
:1026700047AF259C0DF1C00973E4234692E60D9AFD
:10268000023A0D92013B002B9DF834201D93B8BFF8
:102690005B428DF87C20B4BF2D222B22092B8DF8B4
:1026A0007D2040F309810DF18B000446334A82FB03
:1026B0000321DA17C2EBA10202EB8201A3EB410373
:1026C00003F13001092A134604F8011DEEDC21460E
:1026D0003033DAB201F8012D884240F26D810DF1FC
:1026E0007E01234601E013F8012B01F8012B9842EB
:1026F000F9D1431C1B1B0DF17E0213441FAA9B1A28
:102700000E9A1593012A1344099340F3FC80099B08
:10271000129A1344002209930F9223EAE3735EE6B0
:10272000144601330B9A24932C44072B259489E8F3
:1027300024003FF776AF09F108097EE723AA049940
:10274000069802F0D9FA00287EF4DAAE1D9B259C8B
:102750000DF1C009D5E4062D2B4628BF06230993A9
:1027600023EAE373B3460A970F9637460593044E60
:10277000FEF7B0BFF85C0008A85C000867666666F4
:10278000F05C000823AA0499069802F0B5FA002824
:102790007EF4B6AE1D9B0E9A259CD31A0DF1C0098E
:1027A000C7E421AA1EAB019200935A461DAB032138
:1027B0009DED180B069800F05FFA5D46064600EBAB
:1027C0000B04F8E60393FFF7CDB84FF0060BA6E530
:1027D0002D278DF86F70FFF7B9B9DDE9101202F1FE
:1027E000004319932D2318910593A6E5129A0E9B89
:1027F00013440F9A0993002A40F38F80672223EA3B
:10280000E3730D92EBE5002B40F38F80BBF1000FDB
:1028100062D1039AD1075FD41A46099223EAE3737F
:10282000DDE5039BDB075F4605D540AE302306F8A8
:10283000413DFEF745BFCDF824B030AEFEF743BFB3
:1028400025EAE5730A970593099583460F909DF84D
:102850006F70FEF73FBF0D9B472B7FF48FAD039B3F
:10286000DC073FF5A2AE219B472FA3EB06030E9397
:102870003FF4F0AE1D9B05E723AA0499069802F0E9
:102880003BFA00287EF43CAE1D9D259C249B0DF157
:10289000C0091EE6A0460025FEF778BD219B81E514
:1028A000129A0F9B1344672209930D9223EAE37354
:1028B00095E50A93174605E4303330228DF87F30D2
:1028C0008DF87E2020AB19E70A9303E53C4E3D4B83
:1028D0009DF86F70FFF73CB90F9B129A9D1805EB9E
:1028E0000B03099323EAE37379E500220023DDE972
:1028F000180102F093FF00287FF461AEC5F10105D5
:102900001D952C443BE5039B13F001037FF4FFAEC0
:102910000F93099B23EAE37361E50F9B099AC3F1C7
:1029200001031A441346099268E7BBF1000F02D174
:10293000039BDA0707D5129B5D1C05EB0B0309937C
:1029400023EAE3734BE50123099348E50A9898F8D5
:10295000013005680430002D0A90A046BEF614AD83
:102960004FF0FF35FEF710BD8DF86F10FFF79AB8E6
:102970008DF86F10FFF764B88DF86F10FEF7C6BFC3
:102980008DF86F10FEF763BE8DF86F10FFF719B862
:102990008DF86F10FEF7D1BD8DF86F10FFF758B9A5
:1029A0008DF86F10FEF72ABE8DF86F10FFF7F4B8A0
:1029B0008DF86F10FFF793B80DF17E039EE600BF10
:1029C000C45C0008C05C0008F0B50C46ADF26C4D6C
:1029D0008989666EE589199621F00201666AADF86B
:1029E0000E500025E769ADF80C10099606951AAE51
:1029F0004FF4806569460096049602950595079701
:102A00000646FEF74DFC051E07DB30466946FDF71E
:102A1000FDFD002818BF4FF0FF35BDF80C305B06F8
:102A200003D5A38943F04003A38128460DF26C4DE2
:102A3000F0BD00BF70B50D46084C114606461A465B
:102A4000284600232360FDF721FC431C00D070BD05
:102A50002368002BFBD0336070BD00BFE809002065
:102A600038B5304B1B6805460C4613B19A6B002AEB
:102A700038D0B4F90C2093B218070CD52069A8B14E
:102A800013F001021ED0636900225B42A361A260C1
:102A9000F0B1002038BDD9063CD5580726D42069AE
:102AA00042F00803A3819BB20028E9D103F420720D
:102AB000B2F5007FE4D02846214601F00FFAA38941
:102AC0002069DDE7990758BF6269A2600028E0D15C
:102AD000B4F90C301A06DDD543F04003A3814FF062
:102AE000FF3038BD1846FDF737FEC2E7216B51B104
:102AF00004F14003994204D02846FDF785FEB4F95D
:102B00000C200023236300232069636022F0240249
:102B10002060C5E742F0400209232B604FF0FF30F0
:102B2000A28138BD3004002038B5074C002305468B
:102B30000846236003F06EF8431C00D038BD2368BC
:102B4000002BFBD02B6038BDE809002002690B691F
:102B5000934200F38D802DE9F04F03F1FF3801F12E
:102B6000140700F1140B57F828205BF828304FEABF
:102B7000880483B00132B3FBF2F90BEB0403009439
:102B800007EB040A0193B9F1000F39D00025BC46C8
:102B9000DE462B465CF8046BDEF80020B4B209FB7D
:102BA0000455360C2C0C09FB0644ADB25B1BA6B2D7
:102BB00013FA82F3C6EB124606EB23469BB243EAB6
:102BC0000643E2454EF8043B4FEA14454FEA2643DC
:102BD000E0D2009B5BF8033093B9019C231F9B4517
:102BE0000CD254F8043C4BB9A4F1080302E01A6873
:102BF000043B1AB99B4508F1FF38F8D3C0F81080A0
:102C0000044601F00BFD00282EDB09F101095D46A9
:102C1000002357F8041B28688AB29A1A090C12FA82
:102C200080F2C1EB104303EB224391B241EA03412E
:102C3000BA4545F8041B4FEA2343EAD25BF8282043
:102C40000BEB880382B91A1F93450BD253F8042C5F
:102C500042B9083B02E01A68043B1AB99B4508F1E7
:102C6000FF38F8D3C4F81080484603B0BDE8F08FB1
:102C700000207047000000002DE9F04F57EC106B6A
:102C80009BB0046C249D009181460592039310EE45
:102C900010AABB4654B1426C626001239340A3600A
:102CA000214601F0D9FA0023C9F84030BBF1000FEA
:102CB0005C4634DB00232B60A14B1A462340934231
:102CC00016D0002200235046594602F0A7FD564672
:102CD0005F46804648B3039A01231360259B002B6F
:102CE00000F0BE809748186001381BB0BDE8F08F37
:102CF000039A42F20F731360BAF1000F00F09A804A
:102D00009148259B002BF0D0C378002B00F0AA80BF
:102D100000F10803259A13601BB0BDE8F08F012372
:102D20002BF000442B60A346C6E718AA19A947EC6C
:102D3000106B484601F01EFD250D0A9040F083807F
:102D4000189D199E2E4406F23243202B40F38882B0
:102D5000C3F1400306F212409C402AFA00F02043DF
:102D600002F07EFA0123741EA1F1F8710F93002284
:102D7000764B02F037F96CA3D3E9002302F0E6FAB0
:102D80006BA3D3E9002302F02FF9064620460F4635
:102D900002F076FA68A3D3E9002302F0D7FA0246DC
:102DA0000B463046394602F01FF906460F4602F040
:102DB0007DFD0022049000233046394602F038FDA4
:102DC000002840F02882049E162E00F22182604BDB
:102DD00003EBC603D3E9000152465B4602F046FD11
:102DE000002800F04282731E049300230D932D1BD4
:102DF000B5F1010800F12A8200230793049B002B00
:102E0000C0F21B8298440C9300230693009B092B6D
:102E10002AD8052B40F34486043B00930026009BF0
:102E2000023B032B00F22386DFE813F02B0324027E
:102E300036035004444B474AC4F31300002814BF20
:102E4000184610465DE7CBF3130343F07F51A5F21C
:102E5000FF345046CDF83C8041F44011189D86E780
:102E60003D4842E7C31C55E70021C9F844104846D5
:102E70000C46009101F0CAF94FF0FF3308930E930E
:102E800001230990C9F8400005940B93199B002B6E
:102E9000C0F2D080049A0E2A00F3CC802C4B03EBB6
:102EA000C20393ED007B059B002B8DED007BC0F2F0
:102EB000FE8256465F46DDE900AB304652465B4631
:102EC000394602F06DFB02F0F1FC044602F0D8F93D
:102ED00052465B4602F03AFA0B4602463946304605
:102EE00002F080F8099D04F130032B70089B012B40
:102EF00006460F4605F1010561D00022174B02F08E
:102F000025FA0022002306460F4602F087FC00281F
:102F10007DD1CDF81490DDF820A0DDF824B0DDE9F6
:102F2000008928E0AFF3008061436F63A787D23F39
:102F3000B3C8608B288AC63FFB799F501344D33FA8
:102F40000000F07FF95C0008185D00080000F83F01
:102F5000205D00080C5D0008F85C000800002440BB
:102F600002F0F4F90022002306460F4602F056FC58
:102F7000002840F0AE8342464B463046394602F0C8
:102F80000FFB02F093FC044602F07AF942464B46EE
:102F900002F0DCF902460B463046394602F022F8D0
:102FA00004F1300E05F801EBCBEB050ED6450646D5
:102FB0000F464FF00002AE4BD2D1DDF814903246EE
:102FC0003B463046394602F00FF806460F460246A9
:102FD0000B46DDE9000102F02BFC40B932463B46CE
:102FE000DDE9000102F01AFC88B1E3070FD515F8FE
:102FF000014C099A6B1E04E09A4200F0FC8313F81E
:10300000014D392C03F10105F6D001341C700A99E9
:10301000484601F021F90022049B2A70039A0133EB
:103020001360259B002B00F09B8309981D601BB04B
:10303000BDE8F08F0B9A002A00F00E81009A012A59
:1030400040F35782089B069A5F1EBA42C0F28B83F8
:10305000D71B089B002BC0F28084079D089B079A12
:1030600001211A4448460792984401F08DF906461A
:1030700065B1B8F1000F09DD4545079A2B46A8BF99
:103080004346D21A0792ED1AC3EB0808069B002BA1
:1030900040F3F5820B9A002A00F00282002F00F024
:1030A000FF8131463A46484601F010FA0A9A014635
:1030B0000646484601F072F90A990446484601F06E
:1030C000CBF8069BDB1B069340F0E98101214846C3
:1030D00001F05AF90C9B0690002B00F01582014676
:1030E0001A46484601F0F2F9009B0690012B40F386
:1030F000F3820027069A136902EB8303186901F033
:10310000F5F8C0F12000404410F01F0000F0FA81F3
:10311000C0F12003042B40F3BD84C0F11C00079BC9
:103120000344079305448044079B002B05DD21469B
:103130001A46484601F01AFA0446B8F1000F05DDB8
:1031400042460699484601F011FA06900D9B002B65
:1031500040F07A82089B002B40F393820B9B002B5C
:1031600040F0F481DDF824B0089FDDF818805D465A
:1031700002E001F07BF8044641462046FFF7E6FCFA
:1031800000F1300A05F801ABCBEB0503BB424FF071
:103190000A024FF0000321464846EADB099B089AE1
:1031A000012AACBF9B1801331D464FF0000B21468E
:1031B0000122484601F0DAF906990A9001F02EFA48
:1031C000002840F3058315F8012C09996B1E04E0D3
:1031D0008B4200F0748213F8012D392A03F10105A6
:1031E000F6D001321A700699484601F035F8002EE3
:1031F0003FF40DAFBBF1000F05D0B34503D05946E6
:10320000484601F029F83146484601F025F8FEE627
:1032100001230D93EBE5DDF81080404602F030F815
:1032200002460B463046394602F0F8FA00287FF491
:10323000CAAD08F1FF330493C5E5079A049BD21A7F
:103240005B420693002307920C93DFE5C8F100036D
:1032500007934FF00008D1E5069F079D0B9E07E7F7
:10326000C3F120040AFA04F07AE50D90BFE500BF2F
:103270000000244000230B93049B059A13440E93F3
:103280000133002B089340F37D82089C25460021E2
:10329000172DC9F844100BD9012204235B0003F158
:1032A0001400A842114602F10102F7D9C9F84410EE
:1032B000484600F0ABFF0E2C0990C9F840003FF6DD
:1032C000E5AD002E3FF4E2AD04990029CDE910AB45
:1032D00040F39A82904B01F00F020E1103EBC203F0
:1032E000F006D3E9004540F146828C4B50465946E2
:1032F000D3E9082302F054F9CDE9120106F00F06D4
:103300004FF0030A86B1854FF10709D520462946BB
:10331000D7E9002302F01AF80AF1010A04460D4623
:10332000761007F10807EFD122462B46DDE912019E
:1033300002F036F906460F460D9B43B10022784B4A
:103340003046394602F074FA002840F01A8350469D
:1033500001F096FF32463B4601F0F8FF714B002228
:1033600001F042FE089B0446A1F15075002B00F0CD
:10337000DB81049B1693089B12930B9B002B00F0A0
:103380009482129A644B684903EBC20353E9022307
:10339000002002F005F922462B4601F023FE82466A
:1033A0008B463046394602F081FA044601F068FF48
:1033B00002460B463046394601F014FE3034099D72
:1033C000E4B206460F462C7002460B46504659465C
:1033D000013502F04BFA002850D132463B4600201E
:1033E0004F4901F0FFFD02460B465046594602F098
:1033F0003DFA002840F00883129A012A40F3F78131
:10340000129B099ACDF84880134498460DE000209D
:10341000434901F0E7FD52465B4602F009FA0028F5
:1034200040F0F282454500F0E081504659460022C6
:103430003E4B01F08BFF00223C4B82468B463046D0
:10344000394601F083FF0F46064602F02FFA044684
:1034500001F016FF02460B463046394601F0C2FD28
:103460003034E4B252465B4605F8014B06460F463F
:1034700002F0DEF932463B460028C8D0169B049382
:10348000C5E500230B93059B002B40F380811D466F
:103490001C460E930893FAE601230B93F3E70A9474
:1034A000069A0A99484601F011F804460EE6089B70
:1034B000002B3FF7FEAC40F04F8100221C4BDDE9B2
:1034C000000101F043FF5B46524602F0C5F9089B3C
:1034D00006931E46002800F0EA80059B099DDB4309
:1034E00004930699484600F0B7FE002E3FF48FADD6
:1034F00089E60F9A002A00F0388203F23343069FD0
:10350000079DACE51C200AE6009B012B40F380825E
:103510000C9F0120F7E500BF205D0008E85D000872
:103520000000F03F00001C400000E03F000024408D
:1035300000001440314600230A22484600F096FE5F
:103540000E9B002B064640F38D820893002D05DD6F
:1035500031462A46484601F009F80646002F40F059
:103560007C81B046089B099A013BD31808930AF066
:1035700001030A931746DDF818B020465946FFF7B5
:10358000E5FA31460546204601F048F842465946DC
:103590008246484601F064F8C268834605F130036C
:1035A000002A49D101462046079301F037F85946D1
:1035B0000590484600F050FE059A079B2AB90099ED
:1035C00019B90A99002900F03582BAF1000FC0F24A
:1035D000E38005D1009919B90A99002900F0DC802F
:1035E000002A00F34E81089A3B7007F1010A9742C6
:1035F000554600F05281214600230A22484600F039
:1036000035FE4645044631464FF000034FF00A02AE
:1036100048460BD000F02AFE4146064600230A2207
:10362000484600F023FE57468046A4E700F01EFE01
:103630005746064680469EE701464846059300F0F9
:103640000BFE0122059BC0E70699204600F0E6FF2D
:103650000028BFF67FAD2146049C0023013C0A22CE
:103660004846049400F002FE0B9B0446002B7FF4B6
:1036700061AF0E9B002B40F3ED81089372E50A9C2D
:1036800024E5009B022B7FF769AD089B002B40F0DF
:103690009D8106990522484600F0E8FD0146069006
:1036A000204600F0BBFF00280A947FF716AF049A6B
:1036B00009993123013204920B704D1C11E7049AD1
:1036C00001320492099A312313708CE501230B9384
:1036D000D2E5DDF814909AE4BAF1000F7FF409AD59
:1036E000CBF31303002B40F03E812BF000473F0D3E
:1036F0003F052FB1079B0133079308F1010801270C
:103700000C9B0120002B3FF4FEACF3E4504601F08B
:10371000B7FD32463B4601F019FE0022BF4B01F0D7
:1037200063FC0446A1F15075304639460022BC4B7B
:1037300001F058FC22462B4606460F4602F096F84A
:10374000002840F0AE80224605F10043304639465D
:1037500002F06EF800284AD0002306931E46BCE60D
:103760000998FFF7C2BA069B0C9A0697FB1A1A44EF
:103770000C9200276DE49DED107B4FF0020A8DED59
:10378000127BBFE51C460021C9F8441090E50124D6
:103790000E9408940594F6E7002A9A4611DD214616
:1037A0000122484600F0E2FE0699044600F036FF8A
:1037B000002840F34881BAF1390F00F0098105F182
:1037C000310AB34687F800A07D1C46460A940AE5F4
:1037D00004D11AF0010F01D0F5E4154615F8013CAB
:1037E000302B05F1FF32F8D0FDE4DDF84880DDE94B
:1037F00010ABFFF74BBB099930220A70049A15F8F9
:10380000014C0132049200E4049B5C42002C00F065
:10381000B380844B04F00F0203EBC203D3E900230F
:10382000DDE9100101F092FD241106460F4600F07B
:1038300016817D4D4FF0020AE20709D53046394620
:10384000D5E9002301F082FD0AF1010A06460F4680
:10385000641005F10805EFD16EE57168484600F087
:10386000D5FC33699A1C0546920006F10C010C3018
:1038700000F0CEFB29460122484600F077FE804644
:1038800070E6392B00F0A48003F1010AB34687F8F3
:1038900000A07D1C46460A94A5E4B3469A464646D7
:1038A00085E4002306931E4601E7129B5D495A1EDC
:1038B00001EBC2012B461792D1E90001224601F02B
:1038C00045FDCDE914013946304601F0EFFF0446CD
:1038D00001F0D6FC0B4602463946304601F082FB29
:1038E000129B0F4609993034012B06460C7001F1EA
:1038F000010520D0129B099A13449A46AB46002238
:103900004A4B3046394601F021FD0F46064601F08C
:10391000CDFF044601F0B4FC303402460B4630467D
:10392000394601F05FFB0BF8014BDA4506460F46BE
:10393000E5D1179B1D4400223D4BDDE9140101F048
:1039400053FB32463B4601F073FF002848D0169BDC
:10395000049315F8014CFFF74CBB079B089A9D1A7E
:103960000023FFF77CBB0027CAE6189B069F079D34
:10397000C3F13603FFF773BBDDE910674FF0020AAE
:10398000DAE4089B002B3FF4C1AE0E9B002B7FF7BF
:103990002EAF0022254B3046394601F0D7FC0646B3
:1039A0000F460AF1010001F06BFC32463B4601F084
:1039B000CDFC0022194B01F017FB049A0E9B1293C9
:1039C000013A0446A1F150751692D6E40A9484E5B2
:1039D0003922B3460A9446463A707D1CFFF7F5BB80
:1039E000DDE914230020124901F0FCFA32463B467F
:1039F00001F03CFF08B9FAE6154615F8013C302BFA
:103A000005F1FF32F8D039E5169B0493FFF7F1BAC0
:103A1000BAF1000F7FF47CAD62E600BF00001C40ED
:103A200000001440205D0008E85D0008000024400C
:103A30000000E03F392BD3469A46C9D0BBF1000FB6
:103A40003FF7BDAEBDE67FF4BCAE1AF0010F3FF408
:103A5000B8AEB0E6009B022B25DC0E9B0DE64FF0C6
:103A6000020A69E4009B022B1DDC0E9B6DE500241D
:103A7000C9F844402146484600F0C8FB4FF0FF33E8
:103A800008930E93012309900594C9F840000B9305
:103A9000FFF7FCB93FF448ABC0F13C00FFF73FBB78
:103AA0000126FFF7BCB90E9B0893EEE500293DD037
:103AB00070B505460C4608B1836B7BB3B4F90C3086
:103AC0000BB9002070BD21462846FCF7FBFCE36AD9
:103AD000064633B1E169284698470028B8BF4FF041
:103AE000FF36A3891B061CD4216B41B104F14003AE
:103AF000994202D02846FCF787FE00232363616CBD
:103B000021B12846FCF780FE00236364FCF72AFEFF
:103B10000023A381FCF728FE304670BDFCF71CFE95
:103B2000CCE721692846FCF76FFEDDE700207047EF
:103B30009368002B76D02DE9F04F8B8985B00C4629
:103B400019070190164629D522693AB303F00208F5
:103B50001FFA88F0356800282FD04FF00009B44FC5
:103B6000C846B246B84543464A4628BF3B46019838
:103B7000B8F1000F50D0E169666AB047002871DDE6
:103B8000DAF808301B1A8144C0EB0808CAF808307C
:103B9000002BE7D1002005B0BDE8F08F2146019849
:103BA000FEF75EFF002840F03A81A389356803F0F4
:103BB00002081FFA88F00028CFD113F001095BD169
:103BC0004F4602961FB39A05D4F808802CD5474576
:103BD000C246C0F0A48013F4906F40F0B18020681A
:103BE0005246494600F0AEFAA0682368C8EB0000D0
:103BF0005344A06023603846029A93681B1A81449C
:103C00003F1A9360002BC5D0A389002FDBD1D5F8D4
:103C100000906F680835D5E7D5F80090D5F8048096
:103C200008359FE70020704720682369984203D831
:103C300061698F4280F0B780B84528BFB8464246D8
:103C4000494600F07FFAA3682268C8EB03034244A8
:103C5000A3602260002B49D121460198FCF7D6FCD5
:103C6000002843D0B4F90C3043F040034FF0FF304C
:103C7000A38105B0BDE8F08F804602908246814660
:103C8000B9F1000F2AD0029B002B4CD02068236989
:103C90006269C845C34628BFCB4698425F4604D9EF
:103CA000A36813449B4500F39080934520DB1346A3
:103CB000676AE16901985246B847071ED2DDB8EB42
:103CC000070823D0B368DB1BBA44C7EB0909B3600C
:103CD000002B3FF45FAFB9F1000FD4D10023D5F82A
:103CE00000A0D5F8049002930835C9E7404683E761
:103CF0005A46514600F026FAA2682368CBEB02022E
:103D00005B44B8EB0708A2602360DBD12146019831
:103D1000FCF77CFC0028A5D1CDF80880D2E720680C
:103D2000B846BA465CE74A460A21504600F020F9F8
:103D300000286FD001300123CAEB00080293A5E7E9
:103D400062692068216902EB4208C1EB000A08EBB6
:103D5000D8780AF101004FEA6808384440454246E5
:103D600084BF804642465B0542D511460198FCF768
:103D70005DFE8346002855D05246216900F048F97F
:103D8000A38923F4906343F08003A381CAEB080363
:103D90000BEB0A00C4F81480C4F810B02060A360D4
:103DA000B846BA461CE76FF00043BB4228BF3B460B
:103DB0004A4693FBF1F30198666A01FB03F3E1695C
:103DC000B04700283FF718AF4CE71A465146039317
:103DD00000F0B8F92268039B01981A44226021463A
:103DE000FCF714FC039B00287FF43CAF1F4666E7FA
:103DF000019800F055FD83460028C7D1019D216937
:103E00002846FCF701FDB4F90C300C2223F08003A6
:103E10002A6029E7012309F10108029336E74FF0F0
:103E2000FF30B8E6019A0C231360B4F90C301BE79D
:103E300000FCFF7F044A054B1268506B002808BF46
:103E40001846F030704700BF3004002044080020BE
:103E500070B50D46084C114606461A462846002302
:103E6000236001F0EFFE431C00D070BD2368002BDF
:103E7000FBD0336070BD00BFE809002070B50D466F
:103E8000B1F90E10002990B014461E4614DB01AAA9
:103E900001F022F800280FDB029A02F47042A2F52A
:103EA0000052B2FA82F252094FF480634FF400607C
:103EB0003260236010B070BDA88900F0800082B22B
:103EC000002030601AB14023236010B070BD4FF461
:103ED00080631046236010B070BD00BF8A899207CE
:103EE0000B4606D501F1430201211A601A6159619E
:103EF0007047F0B583B001AB6A460C460546FFF744
:103F0000BDFF009906462846FCF790FDB4F90C3039
:103F1000D0B1019A124F0099EF6343F08003A3815F
:103F20002060206161611AB93343A38103B0F0BD01
:103F30002846B4F90E1000F0E3FFB4F90C30002865
:103F4000F2D043F00103EFE79A05EFD404F1430206
:103F500043F002030121A381226022616161E5E750
:103F60005D060008000000000000000000000000E6
:103F700001F0FF01102A2BDB10F0070F08D010F81A
:103F8000013B013A8B422DD010F0070F42B3F6D11E
:103F9000F0B441EA012141EA014122F007047FF037
:103FA00000070023F0E80256083C85EA010586EA8E
:103FB000010685FA47F5A3FA87F586FA47F6A5FACA
:103FC00087F68EB9EED1F0BC01F0FF0102F00702D6
:103FD00032B110F8013B013A83EA010313B1F8D181
:103FE0000020704701387047002D06BF3546033862
:103FF000073815F0010F07D1013015F4807F02BF9B
:10400000013015F4C03F0130F0BC0138704700BFEB
:10401000844641EA000313F003036DD1403A41D3D3
:1040200051F8043B40F8043B51F8043B40F8043B92
:1040300051F8043B40F8043B51F8043B40F8043B82
:1040400051F8043B40F8043B51F8043B40F8043B72
:1040500051F8043B40F8043B51F8043B40F8043B62
:1040600051F8043B40F8043B51F8043B40F8043B52
:1040700051F8043B40F8043B51F8043B40F8043B42
:1040800051F8043B40F8043B51F8043B40F8043B32
:1040900051F8043B40F8043B51F8043B40F8043B22
:1040A000403ABDD2303211D351F8043B40F8043BC2
:1040B00051F8043B40F8043B51F8043B40F8043B02
:1040C00051F8043B40F8043B103AEDD20C3205D3D2
:1040D00051F8043B40F8043B043AF9D2043208D0CA
:1040E000D2071CBF11F8013B00F8013B01D30B883C
:1040F00003806046704700BF082A13D38B078DD01A
:1041000010F003038AD0C3F10403D21ADB071CBFEB
:1041100011F8013B00F8013B80D331F8023B20F855
:10412000023B7BE7043AD9D3013A11F8013B00F88E
:10413000013BF9D20B7803704B7843708B78837016
:10414000604670478842F0B50DD98B1898420AD264
:104150008118002A51D09A1A13F8014D01F8014D27
:104160009342F9D1F0BD0F2A48D941EA00039B07D9
:1041700046D100F1100401F11003154653F8106CFC
:1041800044F8106C53F80C6C44F80C6C53F8086C41
:1041900044F8086C103D53F8046C44F8046C0F2D7F
:1041A00003F1100304F11004E8D8A2F1100323F086
:1041B0000F0302F00F0E1033BEF1030F1944034436
:1041C00021D91E1F0D467446043C55F8047B46F861
:1041D000047F032CF8D8AEF1040424F00304043463
:1041E0002344214402F0030262B1013B0A4411F866
:1041F000014B03F8014F8A42F9D1F0BD0346F3E7C2
:104200000346F2E7F0BD7246EEE700BFC36C70B53F
:1042100005460C464BB153F8240080B1026843F8C0
:10422000242000230361C36070BD2122042100F01B
:10423000C3FDE86403460028EDD1002070BD0121D4
:1042400001FA04F6721D2846920000F0B5FD002820
:10425000F3D044608660E4E731B1C36C4A6853F838
:104260002200086043F82210704700BFF0B50C69C7
:1042700083B00D46064601F1140E0027DEF800005B
:1042800081B202FB01310B0C000C02FB003389B23E
:10429000013701EB0341BC424EF8041B4FEA1343C4
:1042A000ECDC3BB1AA68944207DA05EB84020134E6
:1042B00053612C61284603B0F0BD69680193013158
:1042C0003046FFF7A3FF2A69023205F10C010746C9
:1042D00092000C30FFF79CFEF26C6968019B52F86B
:1042E0002100286042F821503D46DEE7030C1B0404
:1042F000B3B90004102310F07F4F04BF000208334D
:1043000010F0704F04BF0001043310F0404F04BFA1
:1043100080000233002807DB420003D420207047CE
:104320000023E8E7581C704718467047036813F0ED
:10433000070207D0D90720D49A0720D49B0803602E
:104340000220704799B209B91B0C102213F0FF0F1D
:1043500004BF1B0A0832190704BF1B09043299075E
:1043600004BF9B080232D90704D45B0801D1202086
:1043700070470132036010467047002070475B08A9
:1043800003600120704700BF10B50C460121FFF704
:104390003DFF01224461026110BD00BF2DE9F04FD5
:1043A0000D691769BD4283B00C46164604DA2A46E9
:1043B00034463D460E461746A368616805EB07087C
:1043C0009845C8BF0131FFF721FF00F1140C0CEB39
:1043D0008809CC45009005D26346002143F8041BB0
:1043E0009945FBD806F1140202EB870A04F1140385
:1043F000524503EB850E54D2CDF80490994652F8FD
:10440000043B1FFA83FBBBF1000F20D000204F4676
:104410006646054600E01E4657F8044B3068A1B2D8
:1044200083B20BFB0131240C000C4B190BFB040075
:1044300000EB134099B2334641EA0041BE454FEAD2
:10444000104543F8041BE6D8756052F8043C5FEA57
:10445000134B20D0DCF80030674618464D4600214B
:1044600000E037462C88000C0BFB040001449CB292
:104470003E4644EA014346F8043B786855F8044B4D
:1044800083B2240C0BFB043404EB1143AE454FEA1A
:104490001341E6D87B6092450CF1040CAFD8DDF8EF
:1044A0000490B8F1000F0BDD59F8043CA9F10409A0
:1044B0001BB105E059F8043D13B9B8F10108F9D171
:1044C0000098C0F8108003B0BDE8F08F12F003032D
:1044D0002DE9F041144607462ED10E46A4101CD0FB
:1044E000BD6C95B3E3074FF0000806D4641014D0F8
:1044F0002868A8B10546E307F8D52A46314638466C
:10450000FFF74CFFB6B17268FB6C641053F82210D1
:10451000316043F822600646EAD13046BDE8F081BA
:104520002A4629463846FFF739FF2860C0F8008040
:104530000546E0E70646D9E75A1E0B4D002355F81D
:104540002220FFF793FE0646C8E701213846FFF711
:104550005DFE40F2712101220023416102610546A6
:10456000B8640360BEE700BF105E00082DE9F047A5
:1045700091460A698B684FEA691404EB020808F156
:1045800001059D420E468246496804DD5B009D425E
:1045900001F10101FADC5046FFF738FE002C00F172
:1045A000140238DD02EB8403002142F8041B93421D
:1045B000FBD1346906F1140119F01F0901EB840ED7
:1045C00021D0C9F1200200240F6807FA09FC4CEA47
:1045D00004049C4643F8044B51F8044B8E4524FADE
:1045E00002F4F1D8CCF804400CB108F10205DAF875
:1045F0004C307268013D53F822100561316043F878
:104600002260BDE8F087043B51F8042B43F8042FE7
:104610008E45F9D8EBE71346CBE700BF02690B697B
:10462000D21A13D19B0014301431194410B403442E
:1046300001E098420CD253F8044D51F8042D9442F5
:10464000F7D009D301205DF8044B7047104670473E
:1046500000205DF8044B70474FF0FF30F3E700BFD8
:104660002DE9F8430B690F4611695B1A002B904640
:1046700017D1890007F1140208F1140553182944D1
:1046800001E09A425ED253F8046D51F8044DA642FF
:10469000F7D060D23B46144647464FF00109984692
:1046A00006E05DDB07F1140502F114044FF0000988
:1046B0007968FFF7ABFDD8F810303E69C0F80C9070
:1046C00004EB830CA64605EB860700F114040023D7
:1046D0005EF8041B55F8048B8AB213FA88F3090CB0
:1046E0009A1AC1EB184303EB224392B242EA034207
:1046F000F44544F8042B4FEA2343E9D8AF4217D9D5
:10470000A446294651F804EB13FA8EF2131403EB76
:104710001E4392B242EA03428F424CF8042B4FEA06
:104720002343EFD8ED433D4425F0030504352C44E5
:10473000043C22B954F8043D013E002BFAD0066136
:10474000BDE8F8830021FFF761FD0122002302612B
:104750004361BDE8F8832C464FF000091546A7E7F2
:104760003B4607F1140408F1140547464FF00109D0
:1047700098469DE72DE9F04357EC106B83B08846CF
:1047800001213C46C7F30A551746FFF73FFDC4F326
:10479000130481460DB144F4801401941EB302A8A1
:1047A00040F8086DFFF7C2FD002834D19DE80C00E9
:1047B000C9F81420002B0CBF01210221C9F81830C0
:1047C000C9F81010DDB909EB8103A0F23240C8F836
:1047D00000001869FFF78AFDC0EB411038604846B9
:1047E00003B0BDE8F08301A8FFF7A0FD019BC9F865
:1047F000143001212030C9F81010002DE3D0A5F2AB
:1048000033450544C0F13500C8F8005038604846CB
:1048100003B0BDE8F0839DE80C00C0F1200103FA6D
:1048200001F10A43C3400193C9F81420C2E700BF55
:1048300070B50D461446064618B1836B0BB9FBF7ED
:104840008BFFA368013B002BA36005DBE8B2236864
:104850005A1C22601D7070BDA269934202DBE8B24F
:104860000A28F4D1224629463046BDE8704000F0BF
:104870004DBA00BF70B50D46084C114606461A46A3
:1048800028460023236001F0E5F9431C00D070BDE9
:104890002368002BFBD0336070BD00BFE809002007
:1048A0002DE9F04F174683B0002900F0C1800E4675
:1048B000814607F10B05FCF7BFFB56F804EC162DFB
:1048C0002EF00304A6F1080840D810221546AF4286
:1048D00041D8944275DAC94B996808EB04008842C4
:1048E000416800F0D98021F0010303445B68DB07D5
:1048F0007DD51EF0010F35D039464846FCF796F8B5
:104900000746E0B156F8043C23F001034344A0F10C
:1049100008029A4200F04481221F242A00F23181C9
:10492000132A00F204810346324611681960516867
:10493000596092689A6031464846FBF765FF4846E1
:10494000FCF77CFB384603B0BDE8F08F25F0070587
:10495000002D2A46BBDA0C230020C9F8003003B032
:10496000BDE8F08F56F8083CC3EB080ADAF80430CB
:1049700023F0030C04EB0C039342BDDB5746DAF83B
:104980000C1057F8080F221F242AC160886000F21B
:104990001781132A40F212813168CAF80810716831
:1049A000CAF80C101B2A00F22B8108360AF11002FB
:1049B0003168116071685160B16891603E461C4673
:1049C000D046631B0F2B1DD8D8F8043003F0010329
:1049D00023434444C8F80430636843F00103636030
:1049E0004846FCF72BFB304603B0BDE8F08F21F0C2
:1049F00003012144914221DBC36882680C46D360E5
:104A00009A60DEE7D8F8042008EB050102F0010205
:104A1000154343F001020B44C8F804504A605A6839
:104A200042F0010208315A604846FBF7EDFED7E735
:104A3000114603B0BDE8F04FFBF7F8BF1EF0010FC1
:104A40007FF45AAF56F8083CC3EB080ADAF8043092
:104A500023F0030C01EB0C0E96458BDBC3688268D8
:104A60005746D3609A6057F8081FDAF80C30CB60CD
:104A7000221F242A996000F29980132A62D9336890
:104A8000CAF808307368CAF80C301B2A00F2A080FC
:104A900008360AF1100356E021F0030BA34405F198
:104AA0001000834559DA1EF0010F7FF425AF56F848
:104AB000081CC1EB080ADAF8041021F0030CE344E7
:104AC00058453FF757AF5746DAF80C1057F8080F1C
:104AD000221F242AC160886000F2B480132A40F2A9
:104AE000A5803168CAF808107168CAF80C101B2A32
:104AF00000F2AF8008360AF1100231681160716867
:104B00005160B16891600AEB0501C5EB0B0242F000
:104B1000010299604A60DAF8043003F001031D4392
:104B20004846CAF80450FCF789FA38465CE733680F
:104B30000360736843601B2A27D800F1080306F15D
:104B40000802F2E63B4632681A6072685A60B26840
:104B50009A603E467446D04633E708EB0501C5EB44
:104B60000B0B4BF0010299604A6056F8043C03F0CD
:104B700001031D43484646F8045CFCF75FFA3046E3
:104B800032E73146FFF7DEFAD5E6B3688360F368B3
:104B9000C360242A28D000F1100306F11002C4E6F5
:104BA00050F8043C23F003031C440AE7314638461E
:104BB0007446D046FFF7C6FA3E4602E73A46F7E6A5
:104BC000314638461C46D046FFF7BCFA3E46F8E66A
:104BD000B368CAF81030F368CAF81430242A1BD01E
:104BE00010360AF11803AEE7336903617369436154
:104BF00006F1180200F1180397E600BF3404002004
:104C0000B168CAF81010F168CAF81410242A0FD03D
:104C100010360AF11802CBE63369CAF81830736906
:104C2000CAF81C3018360AF120038CE73A4664E7CC
:104C30003269CAF818207269CAF81C2018360AF1BD
:104C40002002B5E6314638460193FFF77BFA019B17
:104C500059E7B168CAF81010F168CAF81410242A8C
:104C600003D010360AF1180247E73269CAF8182053
:104C70007269CAF81C2018360AF120023DE700BF0D
:104C80004B6E2DE9F0479C0492462CD59368126830
:104C90003BB30F46804602F1080919E96000B608E7
:104CA00017D0043D002401E0A64210D03A4655F842
:104CB000041F404600F0FCF8431C04F10104F3D14A
:104CC0000023CAF80830CAF80430BDE8F087DAF8E3
:104CD0000830A3EB8603CAF8083009F10809002B55
:104CE000DBD10020ECE7FEF723FF0023CAF80830F1
:104CF000CAF80430BDE8F08793680BB1FFF7C0BF76
:104D000010B4184653605DF8044B7047F8B50D4673
:104D10001446064610B1836B002B4AD0B4F90C2020
:104D2000A369A36091B2080738D52369002B35D059
:104D30008904EFB215D522686169D31A8B421CDA57
:104D40000133A168501C0139A160206015706269AF
:104D50009A421AD0A389DB0701D50A2F15D038460D
:104D6000F8BD616E42F4005221F40051A281226824
:104D700061666169D31A8B42E2DB21463046FBF75C
:104D800045FC40B922680123DBE721463046FBF7AA
:104D90003DFC0028E3D04FF0FF37E0E721463046E6
:104DA000FDF75EFE0028F6D1B4F90C20236991B21C
:104DB000BEE7FBF7D1FCB1E710B502FB01F1FBF751
:104DC00035FE0446D8B150F8042C22F00302043A10
:104DD000242A18D8132A14D900231B2A03604360FD
:104DE00016D9242A8360C36011BF00F11002036149
:104DF000436100F118020023136053609360204662
:104E000010BD0246F7E70021FCF7C8F8204610BDA8
:104E100000F10802EFE700BF2DE9F04782B08046BD
:104E20008946144600F07EF8012833D004F15C0373
:104E30004A4601A9404600F099F8B0F1FF3F82468A
:104E400021D088B39DF80460002508E023685A1C2F
:104E500022601E700135554526D201AB5E5DA36808
:104E6000013B002BA360F1DAA769BB423146224621
:104E7000404601DB0A2EE9D1FFF748FF431CE9D188
:104E800002B0BDE8F087A38943F04003A38102B0DC
:104E9000BDE8F08709F1FF33FE2BC7D85FFA89F62A
:104EA00082468DF80460CFE7484602B0BDE8F0873F
:104EB000B2F90C3013F4005F0BD110B4546E43F40C
:104EC000005344F40054546693815DF8044BFFF79B
:104ED000A3BFFFF7A1BF00BF38B50B46074C05467F
:104EE000114618460023236000F09CFE431C00D0AE
:104EF00038BD2368002BFBD02B6038BDE8090020AB
:104F000038B5074C002305460846236000F092FEA2
:104F1000431C00D038BD2368002BFBD02B6038BD6C
:104F2000E8090020044B054A1B685B6B002B08BF97
:104F3000134693F8280170473004002044080020ED
:104F400082B049B15AB16BB113780B601278101C62
:104F500018BF012002B0704701A9002AF3D1104602
:104F600002B070476FF00100F4E700BFF0B50646ED
:104F700085B01F4689B1104C104D2468646B002C1D
:104F800008BF2C46D4F8E040A047431C03D10022C0
:104F90008A233A60336005B0F0BD0C460649074AE3
:104FA0000968496B002908BF11462246D1F8E04044
:104FB00001A9A047E9E700BF300400204408002011
:104FC00021B1FF2A04D80A700120704708467047B3
:104FD0008A2303604FF0FF30704700BF81F000412B
:104FE00002E000BF83F0004330B54FEA41044FEACE
:104FF000430594EA050F08BF90EA020F1FBF54EA69
:10500000000C55EA020C7FEA645C7FEA655C00F004
:10501000E2804FEA5454D4EB5555B8BF6D420CDDD5
:105020002C4480EA020281EA030382EA000083EA58
:10503000010180EA020281EA0303362D88BF30BDF8
:1050400011F0004F4FEA01314FF4801C4CEA11314E
:1050500002D0404261EB410113F0004F4FEA0333AD
:105060004CEA133302D0524263EB430394EA050F38
:1050700000F0A780A4F10104D5F1200E0DDB02FAA7
:105080000EFC22FA05F2801841F1000103FA0EF23B
:10509000801843FA05F359410EE0A5F120050EF101
:1050A000200E012A03FA0EFC28BF4CF0020C43FA32
:1050B00005F3C01851EBE37101F0004507D54FF03F
:1050C000000EDCF1000C7EEB00006EEB0101B1F58F
:1050D000801F1BD3B1F5001F0CD349085FEA3000D5
:1050E0004FEA3C0C04F101044FEA445212F5800FE0
:1050F00080F09A80BCF1004F08BF5FEA500C50F17D
:10510000000041EB045141EA050130BD5FEA4C0C5F
:10511000404141EB010111F4801FA4F10104E9D1E8
:1051200091F0000F04BF01460020B1FA81F308BFDF
:105130002033A3F10B03B3F120020CDA0C3208DDAB
:1051400002F1140CC2F10C0201FA0CF021FA02F186
:105150000CE002F11402D8BFC2F1200C01FA02F1F6
:1051600020FA0CFCDCBF41EA0C019040E41AA2BF1B
:1051700001EB0451294330BD6FEA04041F3C1CDAE3
:105180000C340EDC04F11404C4F1200220FA04F003
:1051900001FA02F340EA030021FA04F345EA0301AD
:1051A00030BDC4F10C04C4F1200220FA02F001FA6F
:1051B00004F340EA0300294630BD21FA04F02946F1
:1051C00030BD94F0000F83F4801306BF81F480118A
:1051D0000134013D4EE77FEA645C18BF7FEA655CFD
:1051E00029D094EA050F08BF90EA020F05D054EACF
:1051F000000C04BF1946104630BD91EA030F1EBFD4
:105200000021002030BD5FEA545C05D140004941D7
:1052100028BF41F0004130BD14F580043CBF01F5CA
:10522000801130BD01F0004545F0FE4141F47001B0
:105230004FF0000030BD7FEA645C1ABF194610468B
:105240007FEA655C1CBF0B46024650EA013406BF8C
:1052500052EA033591EA030F41F4002130BD00BF4B
:1052600090F0000F04BF0021704730B54FF4806408
:1052700004F132044FF000054FF0000150E700BF89
:1052800090F0000F04BF0021704730B54FF48064E8
:1052900004F1320410F0004548BF40424FF00001D5
:1052A0003EE700BF42004FEAE2014FEA31014FEA18
:1052B00002701FBF12F07F4393F07F4F81F0605167
:1052C000704792F0000F14BF93F07F4F704730B5D6
:1052D0004FF4607401F0004521F0004120E700BF69
:1052E00050EA010208BF704730B54FF000050AE0F0
:1052F00050EA010208BF704730B511F0004502D5F1
:10530000404261EB41014FF4806404F132045FEAF2
:10531000915C3FF4DCAE4FF003025FEADC0C18BF97
:1053200003325FEADC0C18BF033202EBDC02C2F18D
:10533000200300FA03FC20FA02F001FA03FE40EA1F
:105340000E0021FA02F11444C1E600BF70B54FF01F
:10535000FF0C4CF4E06C1CEA11541DBF1CEA135501
:1053600094EA0C0F95EA0C0F00F0DEF82C4481EA69
:10537000030621EA4C5123EA4C5350EA013518BF89
:1053800052EA033541F4801143F4801338D0A0FB76
:1053900002CE4FF00005E1FB02E506F00042E0FB23
:1053A00003E54FF00006E1FB03569CF0000F18BF29
:1053B0004EF0010EA4F1FF04B6F5007F64F54074D1
:1053C00004D25FEA4E0E6D4146EB060642EAC62164
:1053D00041EA55514FEAC52040EA5E504FEACE2ED1
:1053E000B4F1FD0C88BFBCF5E06F1ED8BEF1004FD4
:1053F00008BF5FEA500E50F1000041EB045170BD50
:1054000006F0004646EA010140EA020081EA030193
:10541000B4EB5C04C2BFD4EB0C0541EA045170BD8F
:1054200041F480114FF0000E013C00F3AB8014F109
:10543000360FDEBF002001F0004170BDC4F1000452
:10544000203C35DA0C341BDC04F11404C4F12005D3
:1054500000FA05F320FA04F001FA05F240EA02002E
:1054600001F0004221F0004110EBD37021FA04F664
:1054700042EB06015EEA430E08BF20EAD37070BD1E
:10548000C4F10C04C4F1200500FA04F320FA05F07D
:1054900001FA04F240EA020001F0004110EBD3707F
:1054A00041F100015EEA430E08BF20EAD37070BDEF
:1054B000C4F1200500FA05F24EEA020E20FA04F3C8
:1054C00001FA05F243EA020321FA04F001F0004177
:1054D00021FA04F220EA020000EBD3705EEA430EE8
:1054E00008BF20EAD37070BD94F0000F0FD101F017
:1054F0000046400041EB010111F4801F08BF013C50
:10550000F7D041EA060195F0000F18BF704703F08D
:105510000046520043EB030313F4801F08BF013D14
:10552000F7D043EA0603704794EA0C0F0CEA1355D0
:1055300018BF95EA0C0F0CD050EA410618BF52EA8A
:105540004306D1D181EA030101F000414FF0000090
:1055500070BD50EA410606BF1046194652EA43069E
:1055600019D094EA0C0F02D150EA013613D195EA12
:105570000C0F05D152EA03361CBF104619460AD15A
:1055800081EA030101F0004141F0FE4141F4700164
:105590004FF0000070BD41F0FE4141F4780170BD54
:1055A00070B54FF0FF0C4CF4E06C1CEA11541DBFB9
:1055B0001CEA135594EA0C0F95EA0C0F00F0A7F8BB
:1055C000A4EB050481EA030E52EA03354FEA0131E8
:1055D00000F088804FEA03334FF0805545EA1313FB
:1055E00043EA12634FEA022245EA111545EA1065C3
:1055F0004FEA00260EF000419D4208BF964244F15A
:10560000FD0404F5407402D25B084FEA3202B61A78
:1056100065EB03055B084FEA32024FF480104FF44C
:10562000002CB6EB020E75EB030E22BFB61A7546C0
:1056300040EA0C005B084FEA3202B6EB020E75EB53
:10564000030E22BFB61A754640EA5C005B084FEABB
:105650003202B6EB020E75EB030E22BFB61A754688
:1056600040EA9C005B084FEA3202B6EB020E75EB93
:10567000030E22BFB61A754640EADC0055EA060E54
:1056800018D04FEA051545EA16754FEA06164FEA97
:10569000C30343EA52734FEAC2025FEA1C1CC0D143
:1056A00011F4801F0BD141EA00014FF000004FF0D0
:1056B000004CB6E711F4801F04BF01430020B4F191
:1056C000FD0C88BFBCF5E06F3FF6AFAEB5EB030C49
:1056D00004BFB6EB020C5FEA500C50F1000041EB46
:1056E000045170BD0EF0004E4EEA113114EB5C0413
:1056F000C2BFD4EB0C0541EA045170BD41F48011E6
:105700004FF0000E013C90E645EA060E8DE60CEAED
:10571000135594EA0C0F08BF95EA0C0F3FF43BAF0A
:1057200094EA0C0F0AD150EA01347FF434AF95EAC1
:105730000C0F7FF425AF104619462CE795EA0C0FA5
:1057400006D152EA03353FF4FDAE1046194622E772
:1057500050EA410618BF52EA43067FF4C5AE50EA4C
:1057600041047FF40DAF52EA43057FF4EBAE12E73C
:105770004FF0FF3C06E000BF4FF0010C02E000BF1D
:105780004FF0010C4DF804CD4FEA410C7FEA6C5C00
:105790004FEA430C18BF7FEA6C5C1BD001B050EAA3
:1057A000410C0CBF52EA430C91EA030F02BF90EA8E
:1057B000020F0020704710F1000F91EA030F58BF4D
:1057C000994208BF90422CBFD8176FEAE37040F0AF
:1057D000010070474FEA410C7FEA6C5C02D150EA4D
:1057E000013C07D14FEA430C7FEA6C5CD6D152EA08
:1057F000033CD3D05DF8040B704700BF84461046CD
:1058000062468C461946634600E000BF01B5FFF7CB
:10581000B7FF002848BF10F1000F01BD4DF808ED9B
:10582000FFF7F4FF0CBF012000205DF808FB00BF6C
:105830004DF808EDFFF7EAFF34BF012000205DF8C6
:1058400008FB00BF4DF808EDFFF7E0FF94BF012013
:1058500000205DF808FB00BF4DF808EDFFF7CEFF14
:1058600094BF012000205DF808FB00BF4DF808ED53
:10587000FFF7C4FF34BF012000205DF808FB00BF24
:105880004FEA410C7FEA6C5C02D150EA013C0AD13C
:105890004FEA430C7FEA6C5C02D152EA033C02D12E
:1058A0004FF0000070474FF0010070474FEA41028F
:1058B00012F5001215D211D56FF47873B3EB625262
:1058C00012D94FEAC12343F0004343EA505311F089
:1058D000004F23FA02F018BF404270474FF000001B
:1058E000704750EA013005D111F0004008BF6FF059
:1058F000004070474FF00000704700BF53B94AB9ED
:10590000002908BF00281CBF4FF0FF314FF0FF30C7
:1059100000F07EB9ADF1080C6DE904CE00F006F898
:10592000DDF804E0DDE9022304B070472DE9F0471B
:105930008C460E460446089D002B50D18A421746DD
:105940006CD9B2FA82FEBEF1000F0BD0CEF120046A
:1059500020FA04F401FA0EF644EA060C02FA0EF7F5
:1059600000FA0EF44FEA1749220CBCFBF9F01FFABB
:1059700087F809FB10C642EA064600FB08F3B3426B
:1059800009D9F61900F1FF3280F02281B34240F2CA
:105990001F8102383E44F61AA2B2B6FBF9F309FBA6
:1059A000136642EA064403FB08F8A04509D9E41946
:1059B00003F1FF3280F00A81A04540F20781023BEB
:1059C0003C44C8EB040443EA00400021002D62D0AF
:1059D00024FA0EF400232C606B60BDE8F0878B4244
:1059E00007D9002D55D0002185E841000846BDE8C3
:1059F000F087B3FA83F1002940F09080B34202D3DC
:105A0000824200F2F880841A66EB03060120B44655
:105A1000002D40D085E81010BDE8F08712B90127AD
:105A2000B7FBF2F7B7FA87FEBEF1000F35D1F31BD3
:105A30004FEA17481FFA87FC0121B3FBF8F0220C4C
:105A400008FB103642EA06460CFB00F3B34207D9C6
:105A5000F61900F1FF3202D2B34200F2CE801046B6
:105A6000F61AA2B2B6FBF8F308FB136642EA064444
:105A70000CFB03FCA44507D9E41903F1FF3202D261
:105A8000A44500F2B5801346CCEB040443EA004081
:105A90009CE729462846BDE8F087CEF1200106FAAA
:105AA0000EF307FA0EF720FA01F94FEA1748CE4035
:105AB00049EA0309B6FBF8FA4FEA194408FB1A66EB
:105AC0001FFA87FC44EA06430AFB0CF29A4200FAEA
:105AD0000EF40AD9DB190AF1FF3180F087809A426F
